:02000002D0002C
:1040000000400D0098940D00000006000C00050112
:0840100004017E050000000020
:04401800A8870D0068
:1040200009480A49884208B505D0094A824202D0A7
:10403000121A04F063FB0748074A0021121A04F021
:1040400068FB014808BD00BFE0DB032008940D00B9
:1040500048DC032048DC0320F0E7032070B502F0C1
:1040600047FB074C074BE41AA40800251E46A5424F
:1040700004D056F8253098470135F8E770BD00BFE9
:10408000F4930D00A8930D0000F022BA08B500F0DB
:1040900089FABDE8084002F0F9BA01F0FFBE01F06C
:1040A000FDBE01F003BF01F001BF0078B0FA80F05F
:1040B0004009704701230370704701F083BC000082
:1040C000F8B502F1080323F0070300AFADEB030DD1
:1040D00014460646684604F011FB00231E490DF8FD
:1040E0000430684604F046FB6D460146E0B11B49CA
:1040F000684604F03FFB08B9012115E018496846FD
:1041000004F038FB08B902210EE01649684604F0B5
:1041100031FB08B9032107E01349684604F02AFB84
:1041200008B9042100E00521104801F015F902F05A
:10413000EDFB314602F024F902F0E8FB0C4902F0F5
:104140001FF902F0E3FB294602F02DF9642002F08A
:104150005FFABD46F8BD00BFBC870D00C1870D00EA
:10416000C5870D00CC870D00D3870D00BCDC032074
:10417000DA870D0010B5044600F5CB6001F0CCFFE6
:10418000204610BD00221146406801F027BE0023E2
:104190001A461946406801F029BE2DE9F0478146CC
:1041A00094B014469A460D4621B1084604F0F4FA3C
:1041B000074600E00F4624B1204604F0EDFA06461B
:1041C00000E026464FF04C084246002101A804F0CA
:1041D000A0FA1C9B8DF81930002301AA1946D9F8C2
:1041E0000400CDF8048002950397049405968DF899
:1041F00018A001F01BFEB0FA80F0400914B0BDE831
:10420000F08700231A461946406801F017BE0000E7
:104210002DE9F04102F108038AB023F0070302AF51
:10422000ADEB030D02AE80461446304604F066FA4C
:1042300000232E493355404604F09CFA28B940F239
:104240005B7231462A4800F0BFFB2A49404604F021
:1042500091FA0446A0BB2849284D384601F0A3FF37
:10426000254907F1100001F09EFF324639462448E7
:1042700000F0CCFF22460221686801F0A7FD284625
:10428000FFF7BFFF234622461E4900942846FFF74A
:1042900084FF03233A69396800942846FFF77DFFBD
:1042A0002846FFF774FF234622462146686801F03E
:1042B0007DFD07F1100001F02FFF384601F02CFFC3
:1042C00002F024FB414602F05BF802F01FFB0E49AE
:1042D00002F056F802F01AFB314602F064F864204E
:1042E00002F096F92037BD46BDE8F081DD870D006C
:1042F00058DC0320E8870D0008910D0004E7032037
:10430000BCDC0320F6870D00DA870D0010B598B0ED
:1043100002F0FCFA414902F046F802F0F7FA0446CE
:1043200014A801F0ABFD1499204602F03CF814A843
:1043300001F0F2FE14A801F0A1FD394B149A39499D
:10434000394800F02BFC14A801F0E6FE3749684616
:1043500001F029FF694610A801F047FF344910A871
:1043600001F0BCFF044614A801F088FD14A9204602
:1043700001F0A8FF014604A801F037FF14A801F0DE
:10438000CBFE10A801F0C8FE69460CA801F02DFF75
:1043900027490CA801F0A2FF2649044610A801F005
:1043A00002FF10A9204601F08DFF0A2204460821D1
:1043B00014A801F036FF14A9204601F083FF01463E
:1043C00008A801F012FF14A801F0A6FE10A801F041
:1043D000A3FE0CA801F0A0FE134800F0E7FA80B19C
:1043E00002220099104800F0A5FD022204990E480F
:1043F00000F0A0FD022208990B4800F09BFD01246B
:1044000000E0044608A801F087FE04A801F084FE3D
:10441000684601F081FE204618B010BD01880D00ED
:104420001C880D0025880D0058DC032031880D0004
:104430003C880D003E880D001FB502F067FA104958
:1044400001F0B1FF684601F019FD0E4B009A0E49CC
:104450000E4800F0A3FB684601F05EFE0B4800F03A
:10446000A5FA50B102220A49084800F063FD022271
:104470000849064800F05EFD012005B05DF804FB28
:1044800048880D001C880D0025880D0040E303209E
:10449000E8870D00DD870D0008B5FFF737FF38B955
:1044A000FFF7CAFF0028F8D002F030FA064902E010
:1044B00002F02CFA054901F076FF4FF47A70BDE85E
:1044C000084002F0A5B800BF6A880D0088880D007A
:1044D00037B50121072003F051F802F017FA4FF425
:1044E000E13102F007FA02F011FA2749274C01F0F6
:1044F0005AFF274800F078FE02F008FA2549002507
:1045000001F051FF2046FFF77CFE2B462A46224948
:1045100000952046FFF741FE0323204A20490095DD
:104520002046FFF73AFE2046FFF731FE2B462A468B
:104530002946606801F03AFC144C2046FFF722FE41
:10454000E0B12046FFF71EFE02F0E0F9002211461E
:104550000546606801F022FC00F15D01284601F08B
:1045600022FF0720012103F01AF82046FFF70AFE78
:1045700038B103B0BDE83040FFF78EBF01F076FCE4
:10458000DAE703B030BD00BF9F880D0004E70320C9
:10459000BCDC0320C2880D00F6870D00EE880D00FC
:1045A000FA880D0070B539488EB000F0FFF908B1F7
:1045B000364804E0364800F0F9F918B1344800F004
:1045C000B3FB05E03348FFF7DDFD08B1FFF764FFFB
:1045D000314D324C32482A46214600F0EBFE01F0C4
:1045E00059FA304A136803F59C53083383424BD27F
:1045F000214610602A462A4800F042FFD5ED000A05
:1046000094ED000A264801F081F902F07FF9064690
:10461000206803F019FB41EC100B0221304601F039
:10462000D9FF2B4622461E4901A800F07DFF1C48F9
:104630002A46214600F06DFF144800F0B7F900B398
:10464000019A1949114800F028FB072002F0C0FF29
:10465000B0FA80F14909072002F0A1FF0D4905A831
:1046600002F088FE05A802F063FE044602F04EF94F
:104670000E4901F085FE02F049F90A22214601F0B7
:10468000EDFE01A801F048FD0EB070BD58DC03201E
:1046900040E3032004E703204CDC032034E3032041
:1046A000BCDC0320B8DC03200B890D0013890D004E
:1046B00070B501F087F91B4B1B4D1C4E4FF6FF7276
:1046C00000241C705C809A80022001F03BFB214694
:1046D000012001F047FB164C0821284600F01EFD82
:1046E0002846144D1449224602F0FAFF134B144990
:1046F00040F25B72284600F071F82846114D2246C0
:10470000314602F0EDFF40F25B720F490F4B284635
:1047100000F064F8224631462846BDE8704002F0B9
:10472000DFBF00BFB0DC0320BCDC0320814F0D00E5
:1047300048DC032058DC032075410D00C1400D000A
:104740001A890D0040E303202A890D0011420D0053
:1047500038B584690A4B036005467CB16368013B48
:1047600063605BB9236820469B689847A368013B58
:10477000A3601BB923682046DB689847284638BDEC
:104780005C920D0010B50446FFF7E2FF20461C21A5
:1047900002F0ABFF204610BD38B51D46059B0363F4
:1047A00000230446436302B1826419B104F1380066
:1047B00001F026FD049B2365069BE069A4F84C509C
:1047C000FF2BB8BFFF23A4F8543008B1FFF76BFCF0
:1047D000B4F85400FFF763FCE06138BD2DE9FF41F8
:1047E00004460025174698460E4602F0F1FCE561A6
:1047F0000A4904F1380001F0D6FCFF2302930F238D
:1048000000932046A564CDF804803B462A463146F5
:10481000FFF7C2FF204604B0BDE8F08108910D000B
:1048200010B50446204602F037FC0028FAD0204696
:1048300002F0DBFAC0B210BD2DE9F0470546C469AD
:104840008846FFF7EDFF2070EB6993F800A04FF06A
:1048500001090AF0F00A00274E462846FFF7E0FF5C
:10486000EB69985500F07F0313FB09F31F44741C98
:104870000306A4B2BFB24FEAC91901D52646ECE738
:10488000631EBAF1300F88F8003013D12846D5F8EE
:104890001C80FFF7C5FF08F804002846F41CD5F873
:1048A0001C800236FFF7BCFFB6B2A4B208F80600BF
:1048B000022300E000231B1B9EB2A3199BB29F4260
:1048C0000BD92846FFF7ACFFB5F85430A34284BF9C
:1048D000EB6918550134A4B2EFE7B5F85400A042D3
:1048E0002CBF20460020BDE8F087F7B507468E466E
:1048F0001E461D46002402A905F07F032144ED0950
:1049000018BF43F08003013401F8043CE4B2002DE9
:10491000F1D1C4F10403D11802F803E0A54206DA8C
:104920002B1B01A81344285C58710135F6E7721C53
:104930002244384602F0AFF9054601F0ABF80134E5
:1049400078623444A8B2231A5842584103B0F0BDEB
:1049500010B5C369E0221A70C36900225A70044678
:104960000222C16902F097F9204602F07DFB01F0B6
:1049700091F86062A06210BD0233F0B59BB20D46A3
:104980006C1A15F8016BA4B23EB1B0F854709F4296
:1049900003D95C1CD654A3B2F2E7191B0A442112B6
:1049A00002F8021C02F8014C1846F0BD38B5054665
:1049B00002F087F9002814BF0124002402D1284600
:1049C00002F052FB204638BD70B504460E4615462F
:1049D000FFF7ECFF10B12046FFF7BAFF314604F1B4
:1049E000380001F00DFC0023A364A4F84C5070BD06
:1049F0002DE9F04387B00446894617461E46DDF888
:104A00003880FFF7D3FF0546002840F0BD80A16C39
:104A100039B90346B4F84C20A16B204602F028FABD
:104A200009E0684601F006FF2B46B4F84C206946C1
:104A3000204602F09FFA002800F0A2800123238480
:104A40009DF84C30042B15D1524B18689A88ADF85C
:104A500004200090E2699B7900988DF80630531D80
:104A6000C2F80500BDF804109DF806209A719980DF
:104A70000C2312E0484BD4F81CC0186859681B7A04
:104A80006A4603C213706B4603CBCCF80500CCF822
:104A9000091013788CF80D300E23B8F1000F0AD0EE
:104AA0009DF840209DF83C10520142F0060242EA77
:104AB000C102D2B200E002229DF8481009B902F00A
:104AC000FD022FB116B942F0800201E042F0C002AF
:104AD000E169CA54226DE169581C12120A549A1CE9
:104AE000E169206D88540333E26949462046FFF7A7
:104AF00043FFB8F1000F0BD00346E2694146204660
:104B0000FFF73AFFE269119903462046FFF734FFA9
:104B100067B10346E26939462046FFF72DFF2EB103
:104B20000346E26931462046FFF726FF431F9BB24A
:104B3000E26910212046FFF7D8FE00F0ABFF4FF4EA
:104B40007A766062A062204602F0A6FA40B900F0D0
:104B5000A1FFA36AC01A236D73439842F3D90FE0F3
:104B600069462046FFF768FE042809D1E369DE782C
:104B700036B900F08FFF0125A06284F82C6004E0B4
:104B8000204602F071FA00E00025284607B0BDE893
:104B9000F08300BF36890D003D890D0010B586B049
:104BA00004240594012404940024039402940194A1
:104BB0000094FFF71DFF06B010BD2DE9F14F0D9ECB
:104BC0009DF828809DF82C509DF8307004468B4647
:104BD00091469A46FFF7EAFE00284CD0B4F85420DC
:104BE000E069002103F095FD0523E269594620465E
:104BF000FFF7C2FE6B1E012B12D8238CE269013332
:104C00009BB223841B121354411C89B2E369228C8A
:104C10005A54023080B21EB1238C5A1C2284338035
:104C2000002291B283188A459BB20AD9B4F8546025
:104C30009E4202F1010204D919F80160E169CE54E3
:104C4000EFE7B8F1000F0CBF302131210FB141F077
:104C50000801022D02D141F0040103E0012D08BF3B
:104C600041F00201053BE2699BB2204601B0BDE87C
:104C7000F04FFFF73ABE01B0BDE8F08F1FB5089CBA
:104C80000394002402949DF81C4001949DF8184060
:104C90000094FFF792FF04B010BD7FB505461046A3
:104CA0000E46144603F078FD00230293019300930F
:104CB0002246034631462846FFF7E0FF04B070BDA8
:104CC00038B504460D46FFF771FE90B1E3696222E4
:104CD0001A70E36902225A70E3692A129A70E36932
:104CE000DD700422E169204601F0D5FF003018BFD5
:104CF000012038BD38B504460D46FFF757FE90B188
:104D0000E36972221A70E36902225A70E3692A1277
:104D10009A70E369DD700422E169204601F0BBFF6F
:104D2000003018BF012038BD2DE9F04F83B000AF2F
:104D30000446FFF73BFE8146002800F0F68000F0B5
:104D4000A9FE226D4FF47A735343A26A821A9A42E3
:104D5000054603D8626A821A934217D294F82C301F
:104D60002BB1204602F080F94FF00009DDE0E26946
:104D7000C0211170E2695370E1690222204601F0FE
:104D80008AFF01236562A56284F82C30204602F078
:104D900083F9002800F0C980F91D2046FFF74CFD7B
:104DA0000246002800F0C180E369A562187800F08F
:104DB000F00130297DD1D4F830B0BBF1000F00F004
:104DC000B48097F807C003EB0C00EA46817890F8AE
:104DD00001E001EB0E2E1FFA8EFE0EF1080121F00C
:104DE0000701ADEB010D684600218EB2B64506D92C
:104DF0000CEB01061E44F67846540131F5E700211C
:104E000000F80E101E7806F00606022E0CF10301C3
:104E1000CCEB02021ED17144CEEB020213F80180EA
:104E20001944053A497801EB08280CF10501714451
:104E30001944D847E36940221A70E3695E70E36958
:104E40001FFA88F84FEA28229A70E369042283F84F
:104E5000038020E0042E24D17144CEEB020213F82B
:104E600001801944053A497801EB08280CF1050145
:104E700071441944D847E36950221A70E369022249
:104E80005A70E3691FFA88F84FEA28229A70E3699A
:104E9000324683F80380E169204601F0FCFE65623A
:104EA00005E0033A7144CEEB02021944D847D546D7
:104EB0003BE0502908D19978DB7803EB012189B2D6
:104EC0002046FFF7FDFE30E040290CD0602908D1D4
:104ED0009978DB7803EB012189B22046FFF70AFFBE
:104EE00023E070290DD1616BF9B1042A1DD110F0B6
:104EF000060F1AD19878DB7803EB002080B2884740
:104F000013E0902911D0C0290AD1D0221A70E36988
:104F100000225A70E1690222204601F0BCFE04E042
:104F2000D02904BF002384F82C3048460C37BD46F6
:104F3000BDE8F08F70B504460E461546FFF736FD06
:104F4000E8B1238C01339BB203B901232384238C62
:104F5000E2691B125371E369228C9A71E26931464E
:104F600007232046FFF708FDE3691D54031FE2698C
:104F700020469BB28221BDE87040FFF7B6BC70BDF1
:104F800010B50446FFF712FD10B12046FFF7E0FC14
:104F9000E06908B1FFF787F804F1380001F0BCF8C8
:104FA0002046FFF7D5FB204610BD00F00BBD03687F
:104FB000C9B29B68184770B5064614460D4602F004
:104FC0006FFB317801F09AFD02F06AFB0368294615
:104FD0009B68984702F064FB210AFFF7E8FF02F0A4
:104FE0005FFBE1B2FFF7E3FF02F05AFBBDE8704060
:104FF00001F08CBD70B5044615460E4602F050FB1C
:10500000217801F07BFD02F04BFB036831469B6881
:10501000984702F045FB01F079FD012001F0F8FA14
:1050200002F03EFB2178022201F065FD02F038FB20
:1050300003685B699847044602F032FB03685B69CA
:10504000984740EA0420288070BD10B50A234FF429
:1050500080528360022304464260C3600521FFF74B
:10506000AAFF204643F61F420021BDE81040FFF78B
:10507000A2BF002201708260C260704710B5044672
:1050800002F00EFB01F028FD2046BDE81040FFF7BE
:10509000DCBF07B502210DF10602FFF7ABFFBDF83B
:1050A0000600C010800003B05DF804FB13B5044691
:1050B00082880521FFF77FFF20460DF106020421BB
:1050C000FFF798FFBDF9060002B010BD0000000018
:1050D00008B5FFF7DEFF02F0A5FD05A3D3E9002325
:1050E00002F006FE03F0FCF800EE100A08BD00BF57
:1050F000FCA9F1D24D62503F10B50446FFF7D6FF30
:1051000094ED020A07EE900AB8EE400AF8EEE77A4C
:1051100087EE800A10BD00F055BC0000F8B54FF4D2
:1051200086720E462849044603F0E8FA4FF4867268
:105130002649A01803F0E2FA4FF48672244904F5D8
:10514000067003F0DBFA4FF48672224904F54970C9
:1051500003F0D4FA4FF486721F4904F586600025E7
:1051600003F0CCFA01274FF486721C4904F23C503C
:1051700003F0C4FAC4F84C56C4F85076C4F8545638
:10518000174904F5CB6001F00EF8164BC4F84C66D5
:10519000013EC4F86C36C4F8685684F87056C4F8FA
:1051A00074562B46092E09D8DFE806F005050505DB
:1051B000050505050505C4F8505601E0C4F850760C
:1051C000C4F854362046F8BD48890D00548A0D00B5
:1051D000608B0D006C8C0D00788D0D00848E0D00A1
:1051E000C5870D00E093040008B50548FFF746FFAA
:1051F0000448FFF743FF0448BDE80840FFF73EBFFF
:10520000A8E3032098E30320B8E30320F8B50E4693
:1052100030460E49174600F0F3FF012500246B1EAF
:10522000DBB2F95C81B1262909D10134E4B2074926
:1052300006EB041000F0E4FF0135EDB2EFE706EBFA
:10524000041001F032F8F7E7F8BD00BF08910D0037
:1052500010B5D0F848364FF47A720C465A43802184
:105260000E2002F0DFF9002C04DD2046BDE81040DE
:1052700000F008BC10BD10B5D0F848364FF47A7273
:105280000C465A4300210E2002F0CCF9002C04DD1C
:105290002046BDE8104000F0F5BB10BD08B5C0F8D1
:1052A000481601210E2002F069F900210E2002F0BB
:1052B00076F901210E20BDE8084002F05FB92DE922
:1052C000F84305460F469046994605264946284626
:1052D000FFF7E4FF002444450BDAE30757F82410F6
:1052E000284602D5FFF7C7FF01E0FFF7B1FF013401
:1052F000F1E700212846FFF7BEFF642001F088F99E
:10530000013EE3D1BDE8F883032938B54FF04302ED
:105310004FF0260300F5CB6505D100F54971FFF785
:10532000CEFF0A490CE0042905D100F23C51FFF7F9
:10533000C6FF074904E000F58661FFF7C0FF054995
:105340002846BDE8384000F05BBF00BFCC870D00A9
:10535000D3870D00908F0D0010B5044631B901467A
:1053600026234322FFF7ABFF0F4908E001290CD1A8
:1053700000F5867126234322FFF7A1FF0B4904F5B0
:10538000CB60BDE8104000F03BBF022907D100F51B
:10539000067126234322FFF792FF0549EFE7BDE898
:1053A0001040FFF7B1BF00BFBC870D00C1870D00E3
:1053B000C5870D00F8B52DED068BD0F850362D4F72
:1053C000064607EE903A13200D461446F8EEE78A9B
:1053D00002F011F9D6F8543607EE903AB8EEE78AA3
:1053E00007EE900AF8EEE77A2348A8EEA78AFFF7BF
:1053F00083FE3846B0EE40AAFFF76AFE3846F0EE6C
:10540000409A1E4FFFF778FE3846B0EE409AFFF7FD
:105410005FFE3846F0EE408AFFF76EFED5ED005A8B
:1054200035EE888A85ED008A94ED006A36EE0A6AC8
:1054300084ED006AD5ED016A76EEA96AC5ED016AD0
:1054400094ED017A37EE097A84ED017AD5ED027A8E
:1054500077EEA87ABDEC068BC5ED027AD4ED027A20
:1054600037EE800A84ED020AD6F874360133C6F8A6
:105470007436F8BD98E30320B8E30320A8E30320C3
:10548000D0F87436D1ED006A07EE903AF8EEE77A7C
:1054900086EEA77A81ED007AD0F87436D2ED006AF4
:1054A00007EE903AF8EEE77A86EEA77A82ED007A78
:1054B000D0F87436D1ED016A07EE903AF8EEE77A4B
:1054C00086EEA77A81ED017AD0F87436D2ED016AC2
:1054D00007EE903AF8EEE77A86EEA77A82ED017A47
:1054E000D0F87436D1ED026A07EE903AF8EEE77A1A
:1054F00086EEA77A81ED027AD0F87436D2ED026A90
:1055000007EE903AF8EEE77A86EEA77A82ED027A15
:10551000704700230B6013604B6053608B60936097
:105520000023C0F8743670472DE9F04FCF4FD04DAF
:10553000D04EDFF86CB38BB00446894639469246AC
:10554000984600F030FE214606A800F04EFECA49FB
:1055500006A800F0C3FEC94900F0C0FE294600F0CD
:10556000BDFE0146204600F031FE06A800F0D4FD45
:10557000214606A800F039FEC14906A800F0AEFE9B
:10558000C04900F0ABFE294600F0A8FE01462046C7
:1055900000F01CFE06A800F0BFFD214606A800F0A2
:1055A00024FEB94906A800F099FE314600F096FEA7
:1055B00009F5CB6100F086FE314600F08FFE2946EA
:1055C00000F08CFE0146204600F000FE06A800F028
:1055D000A3FD214606A800F008FEAC49DFF8C492FE
:1055E00006A800F07BFE394600F078FE0146204612
:1055F00000F0ECFD06A800F08FFD214606A800F0A3
:10560000F4FDA34906A800F069FE394600F066FEE5
:105610000146204600F0DAFD06A800F07DFD214697
:1056200002A800F0E2FD594602A800F057FE9AEDEC
:10563000000A0646062106A800F006FE06A9304626
:1056400000F040FE294600F049FE0146204600F0E9
:10565000BDFD06A800F060FD02A800F05DFD21463A
:1056600002A800F0C2FD494602A800F037FE98EDFE
:10567000000A0646062106A800F0E6FD3046854EE3
:1056800006A900F01FFE314600F028FE0146204624
:1056900000F09CFD06A800F03FFD02A800F03CFDD4
:1056A000214606A800F0A1FD294606A800F016FE36
:1056B0000146204600F08AFD06A800F02DFD214697
:1056C00006A800F092FD744906A800F007FE3946CE
:1056D00000F004FE0146204600F078FD06A800F028
:1056E0001BFD214602A800F080FD594602A800F0EB
:1056F000F5FD9AED010A0190062106A800F0A4FD2F
:10570000019B06A9184600F0DDFD294600F0E6FDE4
:105710000146204600F05AFD06A800F0FDFC02A854
:1057200000F0FAFC214602A800F05FFD494602A8FD
:1057300000F0D4FD98ED010A0190062106A800F0C2
:1057400083FD019B06A9184600F0BCFD314600F020
:10575000C5FD0146204600F039FD06A800F0DCFC3E
:1057600002A800F0D9FC214606A800F03EFD29461B
:1057700006A800F0B3FD0146204600F027FD06A86C
:1057800000F0CAFC214606A800F02FFD434906A8F8
:1057900000F0A4FD394600F0A1FD0146204600F0CE
:1057A00015FD06A800F0B8FC214602A800F01DFD7A
:1057B000594602A800F092FD9AED020A074606211A
:1057C00006A800F041FD06A9384600F07BFD2946F9
:1057D00000F084FD0146204600F0F8FC06A800F029
:1057E0009BFC02A800F098FC214602A800F0FDFCFA
:1057F000494602A800F072FD98ED020A054606210E
:1058000006A800F021FD06A9284600F05BFD314600
:1058100000F064FD0146204600F0D8FC06A800F028
:105820007BFC02A800F078FC214606A800F0DDFC15
:10583000314606A800F052FD0146204600F0C6FCA5
:1058400006A800F069FC214606A800F0CEFC31460F
:1058500006A800F043FD0146204600F0B7FC06A86C
:1058600000F05AFC20460BB0BDE8F08F978F0D007A
:10587000BA8F0D00B88F0D00998F0D009F8F0D000E
:10588000BC8F0D00C48F0D00D18F0D00D98F0D007E
:10589000E18F0D00FE8F0D0000900D0006900D00B1
:1058A000E88F0D00F38F0D0038B50D4604461349FF
:1058B000284600F025FD08B1012105E010492846E1
:1058C00000F01EFD28B102212046BDE83840FFF758
:1058D00043BD0C49284600F013FD08B1032107E041
:1058E0000949284600F00CFD08B1042100E005211B
:1058F0002046BDE83840FFF707BD00BFC1870D0057
:10590000C5870D00CC870D00D3870D00F3EE007A1C
:10591000B4EEE70AF1EE10FA1FB5044609DBDFED3D
:10592000147AF4EEE70AF1EE10FA44BF012380F88E
:10593000703694F87036CBB100F0ACF8D4F8682625
:10594000D4F86C361344834210D2C4F8680604F5C8
:10595000CB61684600F049FC69462046FFF7A4FF8A
:10596000684600F0D9FB002384F8703604B010BDFF
:105970000000164308B500F025F844210648FFF75B
:1059800078FB41210548FFF774FB40210448BDE83E
:105990000840FFF76EBB00BFA8E3032098E3032095
:1059A000B8E3032008B5024B1B689B68019308BD50
:1059B0006802030008B5024B1B68DB68019308BD51
:1059C0006802030008B5024B1B681B68019308BD01
:1059D0002C02030008B5024B1B685B68019308BDED
:1059E0002C02030008B5024B1B689B68019308BD9D
:1059F0002C02030008B5024B1B68DB68019308BD4D
:105A00002C02030008B5024B1B681B69019308BDFB
:105A10002C02030008B5024B1B685B69019308BDAB
:105A20002C02030008B5024B1B681B6B019308BDD9
:105A30002C02030008B5024B1B68DB6F019308BD05
:105A40002C02030008B5024B1B68DB69019308BDFB
:105A50003002030008B5024B1B681B6A019308BDA6
:105A60003002030008B5024B1B685B69019308BD57
:105A70006C02030008B5024B1B685B68019308BD0C
:105A80001802030008B5024B1B68DB68019308BDD0
:105A90001802030008B5024B1B685B69019308BD3F
:105AA0001802030008B5024B1B689B68019308BDF0
:105AB0004802030008B5024B1B681B69019308BD2F
:105AC0004802030008B5024B1B685B69019308BDDF
:105AD0004802030008B5024B1B681B6B019308BD0D
:105AE0004802030008B5024B1B685B6C019308BDBC
:105AF0004802030008B5024B1B685B69019308BDAF
:105B00006402030008B5024B1B681B6A019308BDC1
:105B10006402030008B5024B1B689B6A019308BD31
:105B20006402030008B5024B1B681B68019308BDA3
:105B30003C02030008B5024B1B68DB68019308BDFB
:105B40003C02030008B5024B1B681B69019308BDAA
:105B50003C02030008B5024B1B685B69019308BD5A
:105B60003C02030008B5024B1B689B69019308BD0A
:105B70003C02030008B5024B1B68DB69019308BDBA
:105B80003C02030008B5024B1B681B6A019308BD69
:105B90003C02030008B5024B1B689B6A019308BDD9
:105BA0003C02030008B5024B1B68DB68019308BD8B
:105BB0002802030008B5024B1B685B69019308BD0E
:105BC0002802030008B5024B1B689B69019308BDBE
:105BD0002802030008B5024B1B68DB69019308BD6E
:105BE0002802030008B5024B1B681B6A019308BD1D
:105BF0002802030008B5024B1B685B6A019308BDCD
:105C00002802030008B5024B1B689B6A019308BD7C
:105C10002802030008B5024B1B68DB6A019308BD2C
:105C20002802030008B5024B1B681B6B019308BDDB
:105C30002802030008B5024B1B685B6B019308BD8B
:105C40002802030008B5024B1B681B6C019308BDBA
:105C50002802030008B5024B1B689B69019308BD2D
:105C60003802030008B5024B1B68DB69019308BDCD
:105C70003802030008B5024B1B681B6A019308BD7C
:105C80003802030008B5024B1B689B6A019308BDEC
:105C90003802030008B5024B1B681B6B019308BD5B
:105CA0003802030008B5024B1B689B6B019308BDCB
:105CB0003802030008B5024B1B681B68019308BD3E
:105CC0004C02030008B5024B1B685B68019308BDDA
:105CD0004C02030008B5024B1B681B69019308BD09
:105CE0004C02030008B5024B1B685B69019308BDB9
:105CF0004C02030008B5024B1B689B69019308BD69
:105D00004C02030008B5024B1B68DB69019308BD18
:105D10004C02030008B5024B1B681B6A019308BDC7
:105D20004C02030008B5024B1B685B6F019308BD72
:105D30007402030008B5024B1B681B6D019308BD7C
:105D40006002030008B5024B1B685B68019308BD45
:105D50002002030008B5024B1B685B69019308BD74
:105D60002002030008B5024B1B68DB6A019308BDE3
:105D70002002030008B5034B1B68D3F88830019359
:105D800008BD00002002030008B5034B1B68D3F8D0
:105D90009430019308BD00002002030008B5024BB7
:105DA0001B681B68019308BD4002030008B5024B45
:105DB0001B685B68019308BD4002030008B5024BF5
:105DC0001B689B68019308BD4002030008B5024BA5
:105DD0001B68DB68019308BD4002030008B5024B55
:105DE0001B681B69019308BD4002030008B5024B04
:105DF0001B685B69019308BD4002030008B5024BB4
:105E00001B689B69019308BD4002030008B5024B63
:105E10001B68DB69019308BD4002030008B5024B13
:105E20001B681B6A019308BD4002030008B5024BC2
:105E30001B689B6A019308BD4002030008B5024B32
:105E40001B68DB6A019308BD4002030008B5024BE2
:105E50001B681B6B019308BD4002030008B5024B91
:105E60001B685B6B019308BD4002030008B5024B41
:105E70001B689B68019308BD4402030008B5024BF0
:105E80001B68DB69019308BD4402030008B5024B9F
:105E90001B68DB6B019308BD4402030008B5024B8D
:105EA0001B681B68019308BD1C02030008B5024B68
:105EB0001B685B68019308BD1C02030008B5024B18
:105EC0001B689B68019308BD1C02030008B5024BC8
:105ED0001B68DB6B019308BD1C0203000022114606
:105EE0004068FFF79BBF002211464068FFF7B6BF2E
:105EF00000224068FFF7AABF002281F0010140683C
:105F0000FFF784BF00231A4619464068FFF776BFA3
:105F100000231A4619464068FFF768BF0022114661
:105F20004068FFF75BBF002211464068FFF746BF9D
:105F3000002202214068FFF749BF00231A4640684B
:105F4000FFF734BF024B03225A60024A1A607047BF
:105F5000C8E303201C900D00704710B510210446C3
:105F600001F0C3FB204610BD70B5084B036004462A
:105F700000250E4640F80C5FFFF7ACFD3046267159
:105F8000FFF760FDA560204670BD00BF50900D007A
:105F90000079FFF75FBD0000044B00204FF6FF7251
:105FA000187058809A80FFF7CDBE00BFD0E3032061
:105FB00010B5044602F0F0FB013823182046984241
:105FC00006D20278197800F8011B03F80129F6E7D8
:105FD00010BD70B50C46911E222920D825462946B1
:105FE00010B9234430220EE0B0FBF2F602FB16009B
:105FF000C1B205F8011B092894BF3031573105F8AB
:10600000011C3046EBE7994202D201F8012BFAE776
:10601000002320460B70FFF7CBFF204670BD002009
:1060200070BD38B5031E0C4615460BDAB3F1004FB0
:106030004FF02D0214BF5842184601230A702A4619
:10604000194400E00123FFF7C4FF204638BD0000DB
:106050002DE9F14F59EC108B07460E460022002324
:1060600010EE100A494602F0B5F828B109F10043D4
:1060700099462D2333700136002301240A22D9B218
:106080008F4202D954430133F9E7204601F0CAFD9B
:1060900042464B4601F02CFE82468B4602F088F9C0
:1060A0008046894601F0EEFD02460B4650465946B1
:1060B00001F06AFC0022174B02F0A0F818B118F1A9
:1060C000010849F10009E51722462B46404649469A
:1060D00002F056F901230A223146FFF77AFFAFB1E9
:1060E000304602F059FB2E23335401300644224639
:1060F0002B464046494602F043F93B46104631469E
:106100000A2201B0BDE8F04FFFF763BF01B0BDE860
:10611000F08F00BF0000E03F10B504460068FFF7B5
:10612000C5FE204610BD10B50446006808B1FFF753
:10613000BDFE00232360A360636010BD38B5044634
:106140000D4600680131FFF7B9FE10B184E8210067
:10615000012038BD10B50368044613B143688B4273
:1061600007D22046FFF7EAFF20B1A3680BB92268E7
:106170001370012010BD70B50E4611460446154639
:10618000FFF7E8FF18B92046FFF7CDFF09E02A46E0
:106190003146A560206802F0B1FA2268A3680021A8
:1061A000D154204670BD38B50023044603604360D7
:1061B000836003730D4639B1084602F0EDFA2946B3
:1061C00002462046FFF7D7FF204638BD884210B56B
:1061D0000B46044607D0096819B19A68FFF7CBFF50
:1061E00001E0FFF7A0FF204610BD10B500230446D4
:1061F0000360436083600373FFF7E8FF204610BD30
:1062000038B505460C4641B1084602F0C5FA2146AC
:1062100002462846FFF7AFFF01E0FFF784FF28465C
:1062200038BD10B5044600238AB023606360A360C4
:106230002373084601A9FFF7F4FE01A92046FFF7E2
:10624000DFFF20460AB010BD30B500238BB00360DD
:10625000436083600373044610EE100ACDB201F070
:10626000F3FC41EC100B01A92846FFF7F1FE01A950
:106270002046FFF7C5FF20460BB030BD70B5044681
:106280000E4609B9002070BD6AB18368D518294649
:10629000FFF760FF0028F5D02068A3683146184456
:1062A00002F072FAA560012070BD07B500238DF8D9
:1062B0000410012201A98DF80530FFF7DFFF03B0BC
:1062C0005DF804FB10B58A6809680446FFF7D6FF3D
:1062D00010B92046FFF727FF204610BD38B5044609
:1062E0000D4641B1084602F057FA294602462046BB
:1062F000FFF7C4FF10B92046FFF715FF204638BD51
:1063000008B582680B4612B919B9012008BD11B948
:106310000368187802E0006802F02CFAB0FA80F006
:10632000400908BD024800230360FFF7DBBB00BF44
:10633000D8E30320F8B506460D468F180024BD4269
:106340000CD0336815F8011B9B683046984700282D
:1063500001DB0444F3E7002C08BF04462046F8BDE7
:1063600070B505460C46084649B102F015FA2B688F
:10637000024621462846DB68BDE87040184770BDDC
:1063800008B5FFF7EDFF08BD03689B68184738B5EF
:106390000D210546FFF7F8FF0A2104462846FFF7BE
:1063A000F3FF204438BD38B50546FFF7D9FF044652
:1063B0002846FFF7ECFF204438BD30B58BB00B46C4
:1063C00000218DF82410012A98BF0A220DF1230420
:1063D000B3FBF2F505FB123303F0FF03092B94BF67
:1063E00030333733DBB2214604F801392B46002D18
:1063F000EED1FFF7B5FF0BB030BD10B42AB903687A
:106400005DF8044B9B68C9B21847D2B25DF8044BE3
:10641000FFF7D3BFFFF7F1BF2DE9F04107460E4666
:1064200015462AB90368C9B29B68BDE8F041184710
:106430000A2A02D1002901DA04E0D2B2BDE8F04113
:10644000FFF7BBBF2D21FFF79FFF2A46044671428D
:106450003846FFF7B2FF2044BDE8F08138B5054665
:10646000FFF7DAFF04462846FFF791FF204438BDC6
:106470002DE9F04757EC106B82460D4610EE102ABE
:106480003B4610EE100A394601F0CCFE08B14849EF
:1064900012E027F000494FF0FF32464B30464946A4
:1064A00001F0C0FE68B94FF0FF32424B304649461A
:1064B00001F09AFE28B940495046FFF751FFBDE868
:1064C000F0874FF060423D4B3046394601F0A0FE68
:1064D00008B13B49F0E74FF060423A4B304639464D
:1064E00001F078FE0028F4D100220023304639461E
:1064F00001F070FE40B12D215046FFF745FF07F136
:10650000004304461F4600E004462F494FF00008B0
:1065100000205FFA88F39D4206D900222B4B01F040
:1065200011FD08F10108F4E732463B4601F02EFA6E
:106530000F46064601F0B4FE0A2201468046504648
:10654000FFF73BFF04447DB3404601F05BFB02468E
:106550000B463046394601F017FA06460F465046BC
:106560001B49FFF7FDFE0444184B00223046394614
:1065700001F0BEFB0F46064601F06AFE0A22014604
:1065800080465046FFF748FF0444404601F04AFB6E
:1065900002460B463046394601F0F6F9013D15F04A
:1065A000FF0506460F46DFD12046BDE8F08700BF55
:1065B00058900D00FFFFEF7F60900D00FFFFEF414F
:1065C0005C900D00FFFFEFC10000E03F00002440A1
:1065D000EC880D0038B5C9B20546FFF749FF0446FF
:1065E0002846FFF7D4FE204438BD0000014B024A84
:1065F0001A607047DCE30320D7900D00024B1A6845
:10660000024B1A60704700BFE0DB0320E0E3032089
:106610000021FFF79FBB10B58368044613B1032226
:1066200001469847204610BD10B50446FFF7F3FF1A
:10663000204610BD0348044A04490023836001F04A
:106640004FB800BFE4E3032048DC032029660D00B7
:1066500008B50C4B33B100F059F903681B69984732
:10666000002809DC084B63B100F0D2F903681B690C
:106670009847002803DC08BDAFF30080F2E7AFF3D2
:10668000008008BD000000000000000008B5FFF712
:10669000DFFFFFF7FFF9014B186008BD34E7032067
:1066A00007B5002300931A466FF07701FFF76CFBE4
:1066B00003B05DF804FB000007B543880A2B08D03F
:1066C000502B09D1094B1B683BB103B05DF804EBBB
:1066D0001847FFF7E5FF06E0002300931A466FF026
:1066E0007701FFF751FB03B05DF804FBF4E30320EF
:1066F00010B5FFF7BFF9044602F014F8074B13B1C9
:106700002046AFF3008000210448FFF7BFFB0021C3
:106710000348BDE81040FFF72DBB00BF000000009C
:10672000B9660D00704710B51821044600F0DDFF72
:10673000204610BDF0B5037D062B8DB00E4600F14E
:1067400004074FF0000402D000F1080518E00CAD7A
:10675000394605F8304D2F232A460A20FFF7CAF99B
:10676000284602F019F833680246DB6829463046AD
:1067700098470FE024B12E213046FFF705FE044470
:1067800015F8011D0A223046FFF744FEBD420444BD
:10679000F0D120460DB0F0BD10B5054B04461122D6
:1067A00040F8043B002101F0B4FF204610BD00BFBB
:1067B00070910D000346074A10B543F8042B01F110
:1067C000100251F8044B43F8044B9142F9D10A7876
:1067D0001A7010BD70910D00037D042B01D140682B
:1067E00008E0062B0AD1436853B9836843B9C368EC
:1067F00033B90069003018BF01207047002070478E
:106800000120704710B59DF8084044EA032343EA8D
:10681000024242EA016104234160037510BD37B5AD
:106820000D788B784A78C97800912946FFF7EAFFFE
:1068300003B030BD10B5034B03600446FFF7EFFF14
:10684000204610BD70910D0041747047704708B527
:106850000021007CFFF74EFA30EA200028BF4FF0FD
:10686000FF3008BD08B50121007CFFF743FA30EA8C
:10687000200028BF4FF0FF3008BD08B5007CFFF7AF
:1068800031FA20EAE07008BD08B5007CFFF722FA73
:1068900020EAE07008BD007CFFF73CBA10B5142177
:1068A000044600F022FF204610BD38B50446007CA7
:1068B0000D46FFF717FA002801DC607C28B1294655
:1068C000207CFFF71FFA20EAE07038BD10B50446BF
:1068D000002363604FF47A73A360054B23600123A8
:1068E0000846217463741146FFF7E4F9204610BD91
:1068F00084910D000022007CFFF7E4B910B514224A
:106900000446002101F005FF204610BD30B50E4DB4
:1069100087B001A8FFF7F2FF296811F0010410D138
:106920002846FDF7C2FB60B101AA21460748FFF7E0
:10693000CDFF2846FDF7BEFB054A0649034800F097
:10694000CFFE024807B030BDF8E30320FCE303208C
:1069500048DC03204D680D0070474174704708B54E
:10696000007CFFF717F920EAE07008BD08B5007C4D
:10697000FFF7E8F820EAE07008BD08B5007CFFF7F3
:10698000F1F830EA200028BF4FF0FF3008BD08B50D
:10699000007CFFF7DFF830EA200028BF4FF0FF301F
:1069A00008BD007CFFF7E6B810B51421044600F0DE
:1069B0009CFE204610BD70B5457C04460E4625B9A8
:1069C000007CFFF7E7F8002805DD3146207CBDE8B4
:1069D0007040FFF7AFB8284670BD000010B5044600
:1069E00008461146002262604FF47A72A260054A9E
:1069F00022600122207462741A46FFF793F8204641
:106A000010BD00BFB4910D00007CFFF7BBB80000C3
:106A100038B50C4D296811F0010411D12846FDF755
:106A200044FB68B1084A094B09482146FFF7D6FFE5
:106A30002846FDF73FFB074A0749054800F050FE8E
:106A4000034838BDA8E40320ACE4032024E4032079
:106A500010E4032048DC032059690D007047F8B5A5
:106A6000064615460C468F18BC4206D0336814F80B
:106A7000011B9B6830469847F6E72846F8BD002280
:106A8000007CFFF7AFB80021007CFFF7B3B800210E
:106A9000007CFFF7B7B80021007CFFF7BBB80021EE
:106AA000007CFFF7BFB810B51421044600F01DFEAE
:106AB000204610BD10B504464FF47A730846A36013
:106AC0000021044B207461602360FFF7BBF820466F
:106AD00010BD00BFE4910D0000231A461946007C4A
:106AE000FFF760B813B50024007C0094FFF762F84C
:106AF000C0B202B010BD0123FFF7F4BF0022007C3A
:106B0000FFF760B80022007CFFF764B80121FFF7AF
:106B1000F9BF0021007CFFF78DB8002211464068C4
:106B2000FFF77CB9002211464068FFF797B90022B1
:106B30004068FFF78BB9002281F001014068FFF740
:106B400065B900231A4601214068FFF757B90023B1
:106B50001A4619464068FFF749B9002211464068B5
:106B6000FFF73CB9002211464068FFF727B9002221
:106B700002214068FFF72AB900231A464068FFF750
:106B800015B938B5054688B104684CB1A3681BB186
:106B900003222146204698471021204600F0A5FDFB
:106BA00028461421BDE8384000F09FBD38BD10B123
:106BB00003685B681847704710B503680446BBB1AB
:106BC0005868FEF76FFF78B923685A7C12B9586885
:106BD000FEF770FF23685868FEF774FF20680023F3
:106BE000236028B1FFF7CDFF206808B1FFF7C9FF88
:106BF000204610BD38B50C4B03600446D0F8CC01DC
:106C000008B1FDF750FAD4F8C45135B12846FFF762
:106C1000D3FF0421284600F068FDA06808B1FFF703
:106C2000C6FF204638BD00BF0C920D0038B50E4C93
:106C30000E4B23600025022304F5E4706360A56019
:106C4000C4F8C451C4F8C851FEF74CFF084BC4F84F
:106C5000CC5184F8D05123602046064A0649BDE84D
:106C6000384000F03DBD00BF30E5032018930D0013
:106C70000C920D0048DC0320F56B0D0037B502AC1B
:106C8000036804F8011DDD6B01224FF0FF3321463C
:106C9000A84703B030BD10B40368DC6B4FF0FF337E
:106CA000A4465DF8044B604737B502AC036804F8AE
:106CB000011DDD6B214613460122A84703B030BDFC
:106CC000704738B543691A68002A044605DAB3F8F4
:106CD0008620B3F884309A4201D001250BE0036886
:106CE0001B699847002814BF0125002503D123689C
:106CF0002046DB6A9847284638BD43691868C04378
:106D0000C00F704770470020704710B5142104462B
:106D100000F0EBFC204610BDFDF7C3B97FB5164669
:106D200000224260029203925A1C04460D4608D08B
:106D30004FF47A72B3FBF2F1029102FB11314A4334
:106D4000039260690823009341F205026B4440F608
:106D5000FF710068FEF77EFF002808DB60690023F2
:106D6000324629460068FEF795FF002804DAFFF74F
:106D7000ADF803686360002004B070BD10B503680F
:106D800004469B689847A368013BA3602BB923681E
:106D90002046DB68BDE81040184710BD70B50446BA
:106DA0004D69054B44F8043B8C3506460FCD0FC4A6
:106DB0002B682370304670BD70910D0010B543698B
:106DC000B3F88620B3F884309A42044605D062694D
:106DD000B2F884301344187910BD03681B699847D2
:106DE0000028F4D14FF0FF3010BD10B54369B3F85F
:106DF0008620B3F884309A42044608D06269B2F81B
:106E00008430591C1344A2F88410187910BD03680B
:106E10001B6998470028F1D14FF0FF3010BDF8B53D
:106E200043691746B3F88620B3F884309A42054682
:106E30000E4606D103681B69984710B94FF0FF341E
:106E400014E06969B1F88430B1F88640E41ABC42B4
:106E500028BF3C46194422460431304601F04EFC1E
:106E60006A69B2F884302344A2F884302046F8BD21
:106E70002DE9F0439846036893B0DB6A0D46064659
:106E80001746984712AB002443F8484D2246214646
:106E90002846FEF78FFD814600283DD1009B002B40
:106EA00056D05B69002B53D006A8FFF775FC009BFA
:106EB0005C696378022B01D1211D13E00A2B14D1E8
:106EC0001122494601A801F024FCA36833BBE36802
:106ED00023BB4FF6FF702569FEF714FE85421DD1D6
:106EE00004F1140106A8FFF79AFC06A8FFF774FC4A
:106EF00000282DD0336807ADD3F82090184B0C93A1
:106F00000FCD0DAC0FC42B6823703A4643460CA935
:106F10003046C84781461BE0A14619E004F108034A
:106F200001AD1834186859682A4603C20833A342D1
:106F30001546F7D1062301A90CA80DAD8DF8143024
:106F4000FFF738FC0FCD07AC0FC42B682370CCE7DC
:106F50000098FEF727FD484613B0BDE8F08300BF58
:106F600070910D0042690023A2F884304269A2F8B2
:106F7000863070472DE9F0411E4603680C468AB002
:106F8000DB6A054617469847237DD5F81480042B05
:106F90000CBF02200A2006220121FEF783FEC8F85A
:106FA00000006B691B68002B18DB2846FFF7DAFF2F
:106FB000D6B1002303A9F0B20393ADF81030FEF769
:106FC00051FD58B968690623009341F20B0203ABE7
:106FD00040F6FF710068FEF73DFE28B12B68284699
:106FE000DB6A002498473BE01C263246002103A8B8
:106FF00001F08FFB237D8DF80C60042B0CD1022354
:1070000038468DF80D30FEF785FDADF80E0060684E
:10701000FEF778FD049013E00A2338468DF80D3012
:10702000FEF778FD05AEADF80E00231D04F1140740
:1070300018685968324603C20833BB421646F7D176
:107040006B691C2203A91868FEF714FE0028C5D13D
:1070500004340FCC6D698C350FC523682B70012467
:1070600020460AB0BDE8F08110B5436904461868AF
:10707000002801DBFEF7F6FD63694FF0FF321A606E
:107080006069112200218C3001F043FB2046BDE8ED
:107090001040FFF767BF000030B54269B2F8863094
:1070A0008BB004461BB1B2F884209A4240D0636989
:1070B000186800283FDBB3F886507F2D3BD8191D98
:1070C000C5F1800208232944FEF7DCFD00280CDD11
:1070D0006369B3F886200AB9A3F884206269B2F81C
:1070E00086301844A2F8860025E0FEF7EFFE03681C
:1070F0000B2B20D0FEF7EAFE03680B2B1BD02023BE
:10710000002502930395FEF7E1FE036801930E4B01
:10711000009302AA2B460D493220FEF70BFE63694D
:107120001868FEF79FFD63694FF0FF321A6002E0B6
:10713000FFF718FFBBE76269B2F88630B2F8840047
:10714000181A0BB030BD00BFA7920D00A0920D0021
:1071500010B5002304460160A0F88430A0F8863002
:107160008830FFF719FB204610BD00004FF47A72FB
:1071700070B500238260144A4360026043618361FA
:107180000446A0200E46FCF788FF054610B13146A4
:10719000FFF7DEFF1420FCF780FF034628B1012231
:1071A00042608260094A02600561A0696561A3616D
:1071B00028B14368013B43600BB9FFF7DFFD204670
:1071C000FFF7D0FE204670BD5C920D0040920D008E
:1071D00010B54FF0FF310446FFF7C8FF204610BD41
:1071E00010B504460068002801DBFEF73BFD204691
:1071F00010BD10B504692046FFF7F2FF24B1204608
:10720000BDE81040FCF74DBF10BD7047012070472E
:1072100083891BB10369B3F1004F02D19FED050AC9
:10722000704707EE903A9FED047AF8EEE77A87EE22
:10723000870A7047000000000000C84283891BB124
:107240008369B3F1004F02D19FED050A704707EE45
:10725000903A9FED047AF8EEE77A87EE870A704756
:10726000000000000000C84210B52421044600F0D0
:107270003CFA204610BD002211464068FEF7CEBD04
:10728000002211464068FEF7E9BD00224068FEF783
:10729000DDBD002281F001014068FEF7B7BD00238B
:1072A0001A4619464068FEF7A9BD002211464068FB
:1072B000FEF784BD002202214068FEF787BD00234F
:1072C0001A464068FEF772BD83897BB1036A002BC2
:1072D0000CDB07EE903ADFED076A9FED070AB8EE88
:1072E000E77AC7EE267A27EE800A7047BFEE000ADB
:1072F000704700BF00FF7F470000C84283897BB111
:107300004369002B0CDB07EE903ADFED076A9FED37
:10731000070AB8EEE77AC7EE267A27EE800A7047AA
:10732000BFEE000A704700BF00FF7F470000C84261
:1073300090F90400704770B50D46064600F10C0444
:107340000FCD0FC495E8030084E803003369B3F15F
:10735000004F0EBF0223642293FBF2F37360B36904
:10736000B3F1004F0EBF0023642293FBF2F3B3602E
:10737000012070BD2DE9F041164B036000258846C1
:107380000227182686B047608560324629460446A3
:107390000C3001F0BEF92A462946D8F80400FEF761
:1073A0001DFD90B132462946684601F0B2F92A46E1
:1073B00069462846ADF80060FEF7B4FC20B969467E
:1073C0002046FFF7B8FF00E06760204606B0BDE842
:1073D000F08100BFF4920D00024B04225A60024A71
:1073E0001A60704704E70320C0920D0000231A467C
:1073F0004068FEF7DBBC002202214068FEF7E6BCD5
:10740000002211464068FEF7D9BC002211464068B0
:10741000FEF7E4BC00231A4619464068FEF7E6BCB6
:1074200000231A4619464068FEF7E8BC002281F0A6
:1074300001014068FEF7EABC00224068FEF706BD85
:10744000002211464068FEF709BD0022114640683F
:10745000FEF7E4BC2DE9F043002495B016460D4636
:107460000746FFF799F9214620220CA8009401F065
:1074700050F940230C9321466B460CAA3046FEF788
:1074800099FA0446002844D1024601216868FEF7B3
:10749000A5FC0221804622466868FEF79FFC009EFC
:1074A00081462146002E34D0002932D17368022B48
:1074B00002D00A2B09D02AE0B8F1000F27D0716959
:1074C00038460431FFF7ABF920E0B9F1000F1ED0C8
:1074D0007469112201A801F01CF906238DF81430FB
:1074E00001AD04F108031834186859682A4603C22C
:1074F0000833A3421546F7D101A906A807ADFFF747
:1075000059F90FCD3C1D0FC42B6823700121F6697A
:10751000C8E70098FEF746FA384615B0BDE8F08394
:10752000024B034A1A6000225A6070470CE703209E
:1075300018930D0010B504460F48FEF729FD28B139
:10754000A4F10B03022B01D8002010BD00F0A8F815
:10755000FFF7DFFA08B1012CF6D9FFF759FAFFF768
:1075600053FA18B1A4F10903012BEDD9232C8CBFD8
:107570000020012010BD00BF14E70320232838B5E8
:1075800004460D460AD8FF2908D0FFF7D3FF28B1DB
:1075900029462046BDE83840FEF724BA38BD38B544
:1075A00004460D46FEF726FAFF2810D0062804D818
:1075B0004D2323FA00F0C30709D42046FFF7BAFF92
:1075C00028B129462046BDE83840FEF71BBA38BD31
:1075D00010B50446FEF70EFA0438C0B2012808D9E7
:1075E0002046FFF7A7FF20B12046BDE81040FEF778
:1075F00011BA002010BD0D2810B504469CBF0E34F2
:10760000A4B22046FFF796FF50B103212046FEF7B3
:10761000E1F9032804D12046BDE81040FEF702BA84
:10762000002010BD70B504460D461646FFF782FFD8
:1076300098B102212046FEF7CDF902280DD120464F
:10764000FEF7D8F9012801D0042806D13246294690
:107650002046BDE87040FEF7EDB970BD70B50C4C2A
:107660000C4E0D4D00212046FEF77EFC20460B4CB3
:107670003246294600F034F801212046FEF774FC1A
:10768000324629462046BDE8704000F029B800BFC8
:1076900014E7032048DC0320595F0D0024E7032092
:1076A00038B50B4D296811F001040FD12846FCF7BD
:1076B000FCFC58B121460748FFF7FCF92846FCF7C7
:1076C000F9FC054A0549034800F00AF8014838BDAD
:1076D00038E703203CE7032048DC03205D6A0D0007
:1076E0000B460146184600F0FBBFFCF7DABC000071
:1076F000184B1A68D1075CBF01221A60164B1A6832
:10770000D2075CBF01221A60144B1A68D0075CBF15
:1077100001221A60124B1A68D1075CBF01221A605D
:10772000104B1A68D2075CBF01221A600E4B1A6810
:10773000D0075CBF01221A600C4B1A68D1075CBFEE
:1077400001221A600A4B1A68D2075CBF01221A6034
:10775000704700BF6CE7032068E7032064E703205D
:1077600060E703205CE7032058E7032054E7032089
:1077700050E70320244B1A68D0075CBF01221A602F
:10778000224B1A68D1075CBF01221A60204B1A688D
:10779000D2075CBF01221A601E4B1A68D0075CBF7B
:1077A00001221A601C4B1A68D1075CBF01221A60C3
:1077B0001A4B1A68D2075CBF01221A60184B1A686C
:1077C000D0075CBF01221A60164B1A68D1075CBF54
:1077D00001221A60144B1A68D2075CBF01221A609A
:1077E000124B1A68D0075CBF01221A60104B1A684E
:1077F000D1075CBF01221A600E4B1A68D2075CBF2A
:1078000001221A60704700BF9CE7032098E703201D
:1078100094E7032090E703208CE7032088E7032008
:1078200084E7032080E703207CE7032078E7032038
:1078300074E7032070E70320244B1A68D0075CBF6D
:1078400001221A60224B1A68D1075CBF01221A601C
:10785000204B1A68D2075CBF01221A601E4B1A68BF
:10786000D0075CBF01221A601C4B1A68D1075CBFAD
:1078700001221A601A4B1A68D2075CBF01221A60F3
:10788000184B1A68D0075CBF01221A60164B1A68A1
:10789000D1075CBF01221A60144B1A68D2075CBF83
:1078A00001221A60124B1A68D0075CBF01221A60CD
:1078B000104B1A68D1075CBF01221A600E4B1A6880
:1078C000D2075CBF01221A60704700BFCCE70320DB
:1078D000C8E70320C4E70320C0E70320BCE7032078
:1078E000B8E70320B4E70320B0E70320ACE70320A8
:1078F000A8E70320A4E70320A0E70320184B1A6899
:10790000D1075CBF01221A60164B1A68D2075CBF10
:1079100001221A60144B1A68D0075CBF01221A605A
:10792000124B1A68D1075CBF01221A60104B1A680B
:10793000D2075CBF01221A600E4B1A68D0075CBFE9
:1079400001221A600C4B1A68D1075CBF01221A6031
:107950000A4B1A68D2075CBF01221A60704700BF49
:10796000ECE70320E8E70320E4E70320E0E7032057
:10797000DCE70320D8E70320D4E70320D0E7032087
:1079800081F0004102E000BF83F0004330B54FEAD0
:1079900041044FEA430594EA050F08BF90EA020F3D
:1079A0001FBF54EA000C55EA020C7FEA645C7FEAD0
:1079B000655C00F0E2804FEA5454D4EB5555B8BFF3
:1079C0006D420CDD2C4480EA020281EA030382EA64
:1079D000000083EA010180EA020281EA0303362DF6
:1079E00088BF30BD11F0004F4FEA01314FF4801CC9
:1079F0004CEA113102D0404261EB410113F0004FDB
:107A00004FEA03334CEA133302D0524263EB430391
:107A100094EA050F00F0A780A4F10104D5F1200E2F
:107A20000DDB02FA0EFC22FA05F2801841F100018A
:107A300003FA0EF2801843FA05F359410EE0A5F15E
:107A400020050EF1200E012A03FA0EFC28BF4CF08F
:107A5000020C43FA05F3C01851EBE37101F0004545
:107A600007D54FF0000EDCF1000C7EEB00006EEB52
:107A70000101B1F5801F1BD3B1F5001F0CD34908DC
:107A80005FEA30004FEA3C0C04F101044FEA445233
:107A900012F5800F80F09A80BCF1004F08BF5FEABA
:107AA000500C50F1000041EB045141EA050130BD9A
:107AB0005FEA4C0C404141EB010111F4801FA4F13D
:107AC0000104E9D191F0000F04BF01460020B1FA92
:107AD00081F308BF2033A3F10B03B3F120020CDACA
:107AE0000C3208DD02F1140CC2F10C0201FA0CF0A8
:107AF00021FA02F10CE002F11402D8BFC2F1200C0D
:107B000001FA02F120FA0CFCDCBF41EA0C019040C2
:107B1000E41AA2BF01EB0451294330BD6FEA04040B
:107B20001F3C1CDA0C340EDC04F11404C4F12002F6
:107B300020FA04F001FA02F340EA030021FA04F308
:107B400045EA030130BDC4F10C04C4F1200220FA5F
:107B500002F001FA04F340EA0300294630BD21FA9D
:107B600004F0294630BD94F0000F83F4801306BF63
:107B700081F480110134013D4EE77FEA645C18BF57
:107B80007FEA655C29D094EA050F08BF90EA020FEE
:107B900005D054EA000C04BF1946104630BD91EAE6
:107BA000030F1EBF0021002030BD5FEA545C05D1E9
:107BB0004000494128BF41F0004130BD14F5800428
:107BC0003CBF01F5801130BD01F0004545F0FE419C
:107BD00041F470014FF0000030BD7FEA645C1ABFD1
:107BE000194610467FEA655C1CBF0B46024650EA08
:107BF000013406BF52EA033591EA030F41F4002134
:107C000030BD00BF90F0000F04BF0021704730B5B9
:107C10004FF4806404F132044FF000054FF000018E
:107C200050E700BF90F0000F04BF0021704730B54F
:107C30004FF4806404F1320410F0004548BF404224
:107C40004FF000013EE700BF42004FEAE2014FEA79
:107C500031014FEA02701FBF12F07F4393F07F4F54
:107C600081F06051704792F0000F14BF93F07F4F86
:107C7000704730B54FF4607401F0004521F00041C9
:107C800020E700BF50EA010208BF704730B54FF04F
:107C900000050AE050EA010208BF704730B511F054
:107CA000004502D5404261EB41014FF4806404F18C
:107CB00032045FEA915C3FF4DCAE4FF003025FEA0E
:107CC000DC0C18BF03325FEADC0C18BF033202EB96
:107CD000DC02C2F1200300FA03FC20FA02F001FAF0
:107CE00003FE40EA0E0021FA02F11444C1E600BF8F
:107CF00070B54FF0FF0C4CF4E06C1CEA11541DBF42
:107D00001CEA135594EA0C0F95EA0C0F00F0DEF80C
:107D10002C4481EA030621EA4C5123EA4C5350EAF1
:107D2000013518BF52EA033541F4801143F4801342
:107D300038D0A0FB02CE4FF00005E1FB02E506F0D3
:107D40000042E0FB03E54FF00006E1FB03569CF028
:107D5000000F18BF4EF0010EA4F1FF04B6F5007F2E
:107D600064F5407404D25FEA4E0E6D4146EB0606A0
:107D700042EAC62141EA55514FEAC52040EA5E5029
:107D80004FEACE2EB4F1FD0C88BFBCF5E06F1ED8D3
:107D9000BEF1004F08BF5FEA500E50F1000041EB0A
:107DA000045170BD06F0004646EA010140EA0200B7
:107DB00081EA0301B4EB5C04C2BFD4EB0C0541EAD9
:107DC000045170BD41F480114FF0000E013C00F3EE
:107DD000AB8014F1360FDEBF002001F0004170BD12
:107DE000C4F10004203C35DA0C341BDC04F114042B
:107DF000C4F1200500FA05F320FA04F001FA05F2B7
:107E000040EA020001F0004221F0004110EBD37083
:107E100021FA04F642EB06015EEA430E08BF20EAAF
:107E2000D37070BDC4F10C04C4F1200500FA04F352
:107E300020FA05F001FA04F240EA020001F00041E4
:107E400010EBD37041F100015EEA430E08BF20EA57
:107E5000D37070BDC4F1200500FA05F24EEA020E9F
:107E600020FA04F301FA05F243EA020321FA04F0CE
:107E700001F0004121FA04F220EA020000EBD37085
:107E80005EEA430E08BF20EAD37070BD94F0000F85
:107E90000FD101F00046400041EB010111F4801FB9
:107EA00008BF013CF7D041EA060195F0000F18BF6A
:107EB000704703F00046520043EB030313F4801FA6
:107EC00008BF013DF7D043EA0603704794EA0C0F60
:107ED0000CEA135518BF95EA0C0F0CD050EA410676
:107EE00018BF52EA4306D1D181EA030101F00041F3
:107EF0004FF0000070BD50EA410606BF104619461B
:107F000052EA430619D094EA0C0F02D150EA013626
:107F100013D195EA0C0F05D152EA03361CBF104667
:107F200019460AD181EA030101F0004141F0FE4106
:107F300041F470014FF0000070BD41F0FE4141F48A
:107F4000780170BD70B54FF0FF0C4CF4E06C1CEA8A
:107F500011541DBF1CEA135594EA0C0F95EA0C0F3F
:107F600000F0A7F8A4EB050481EA030E52EA0335FA
:107F70004FEA013100F088804FEA03334FF080551B
:107F800045EA131343EA12634FEA022245EA111548
:107F900045EA10654FEA00260EF000419D4208BFF9
:107FA000964244F1FD0404F5407402D25B084FEAA6
:107FB0003202B61A65EB03055B084FEA32024FF452
:107FC00080104FF4002CB6EB020E75EB030E22BFAF
:107FD000B61A754640EA0C005B084FEA3202B6EB6F
:107FE000020E75EB030E22BFB61A754640EA5C001E
:107FF0005B084FEA3202B6EB020E75EB030E22BFAE
:10800000B61A754640EA9C005B084FEA3202B6EBAE
:10801000020E75EB030E22BFB61A754640EADC006D
:1080200055EA060E18D04FEA051545EA16754FEACF
:1080300006164FEAC30343EA52734FEAC2025FEAED
:108040001C1CC0D111F4801F0BD141EA00014FF07C
:1080500000004FF0004CB6E711F4801F04BF01434D
:108060000020B4F1FD0C88BFBCF5E06F3FF6AFAE69
:10807000B5EB030C04BFB6EB020C5FEA500C50F1F9
:10808000000041EB045170BD0EF0004E4EEA11317C
:1080900014EB5C04C2BFD4EB0C0541EA045170BD83
:1080A00041F480114FF0000E013C90E645EA060EC7
:1080B0008DE60CEA135594EA0C0F08BF95EA0C0FF5
:1080C0003FF43BAF94EA0C0F0AD150EA01347FF43D
:1080D00034AF95EA0C0F7FF425AF104619462CE714
:1080E00095EA0C0F06D152EA03353FF4FDAE104677
:1080F000194622E750EA410618BF52EA43067FF4C8
:10810000C5AE50EA41047FF40DAF52EA43057FF457
:10811000EBAE12E74FF0FF3C06E000BF4FF0010C62
:1081200002E000BF4FF0010C4DF804CD4FEA410CC6
:108130007FEA6C5C4FEA430C18BF7FEA6C5C1BD093
:1081400001B050EA410C0CBF52EA430C91EA030F14
:1081500002BF90EA020F0020704710F1000F91EA71
:10816000030F58BF994208BF90422CBFD8176FEA3F
:10817000E37040F0010070474FEA410C7FEA6C5C0D
:1081800002D150EA013C07D14FEA430C7FEA6C5C14
:10819000D6D152EA033CD3D05DF8040B704700BF40
:1081A0008446104662468C461946634600E000BF8E
:1081B00001B5FFF7B7FF002848BF10F1000F01BD60
:1081C0004DF808EDFFF7F4FF0CBF012000205DF82B
:1081D00008FB00BF4DF808EDFFF7EAFF34BF0120B0
:1081E00000205DF808FB00BF4DF808EDFFF7E0FF49
:1081F00094BF012000205DF808FB00BF4DF808ED9A
:10820000FFF7CEFF94BF012000205DF808FB00BF00
:108210004DF808EDFFF7C4FF34BF012000205DF8E2
:1082200008FB00BF4FEA410C7FEA6C5C02D150EAC8
:10823000013C0AD14FEA430C7FEA6C5C02D152EA5E
:10824000033C02D14FF0000070474FF0010070472F
:108250004FEA410212F5001215D211D56FF478736E
:10826000B3EB625212D94FEAC12343F0004343EA11
:10827000505311F0004F23FA02F018BF40427047EC
:108280004FF00000704750EA013005D111F0004076
:1082900008BF6FF0004070474FF00000704700BF0C
:1082A0004A0011D212F5001211D20DD56FF4787375
:1082B000B3EB62520ED44FEAC12343F0004343EACA
:1082C000505323FA02F070474FF00000704750EA15
:1082D000013002D14FF0FF3070474FF0000070477F
:1082E0004FEA4102B2F1E04324BFB3F5001CDCF1D8
:1082F000FE5C0DD901F0004C4FEAC0024CEA507010
:10830000B2F1004F40EB830008BF20F0010070473E
:1083100011F0804F21D113F13872BCBF01F0004041
:10832000704741F480114FEA5252C2F11802C2F173
:10833000200C10FA0CF320FA02F018BF40F00100F4
:108340004FEAC1234FEAD32303FA0CFC40EA0C00A6
:1083500023FA02F34FEA4303CCE77FEA625307D1E3
:1083600050EA01331EBF4FF0FE4040F4400070471A
:1083700001F0004040F0FE4040F40000704700BFB4
:1083800053B94AB9002908BF00281CBF4FF0FF317C
:108390004FF0FF3000F0A2B9ADF1080C6DE904CE4A
:1083A00000F02AF8DDF804E0DDE9022304B07047AC
:1083B000D0B500220E4B06460F46FFF799FCFFF79B
:1083C0006FFF0446FFF71EFC00220A4BFFF790FCEC
:1083D00002460B4630463946FFF7D6FAFFF760FFF4
:1083E0002346002242EA000210461946D0BD00BFD3
:1083F0000000F03D0000F0412DE9F0478C460E46AC
:108400000446089D002B50D18A4217466CD9B2FA17
:1084100082FEBEF1000F0BD0CEF1200420FA04F44E
:1084200001FA0EF644EA060C02FA0EF700FA0EF410
:108430004FEA1749220CBCFBF9F01FFA87F809FB39
:1084400010C642EA064600FB08F3B34209D9F61902
:1084500000F1FF3280F02281B34240F21F810238E6
:108460003E44F61AA2B2B6FBF9F309FB136642EAE0
:10847000064403FB08F8A04509D9E41903F1FF32CB
:1084800080F00A81A04540F20781023B3C44C8EBE2
:10849000040443EA00400021002D62D024FA0EF4C7
:1084A00000232C606B60BDE8F0878B4207D9002D5C
:1084B00055D0002185E841000846BDE8F087B3FAB1
:1084C00083F1002940F09080B34202D3824200F24F
:1084D000F880841A66EB03060120B446002D40D0D4
:1084E00085E81010BDE8F08712B90127B7FBF2F755
:1084F000B7FA87FEBEF1000F35D1F31B4FEA1748DC
:108500001FFA87FC0121B3FBF8F0220C08FB1036A0
:1085100042EA06460CFB00F3B34207D9F61900F114
:10852000FF3202D2B34200F2CE801046F61AA2B257
:10853000B6FBF8F308FB136642EA06440CFB03FCA7
:10854000A44507D9E41903F1FF3202D2A44500F291
:10855000B5801346CCEB040443EA00409CE729466F
:108560002846BDE8F087CEF1200106FA0EF307FA9F
:108570000EF720FA01F94FEA1748CE4049EA0309FD
:10858000B6FBF8FA4FEA194408FB1A661FFA87FC93
:1085900044EA06430AFB0CF29A4200FA0EF40AD9A6
:1085A000DB190AF1FF3180F087809A4240F2848023
:1085B000AAF1020A3B449B1A1FFA89F9B3FBF8F1AE
:1085C00008FB113349EA034301FB0CF69E4207D92D
:1085D000DB1901F1FF326BD29E4269D902393B446B
:1085E0009B1B41EA0A418EE7C1F1200E22FA0EF4EC
:1085F0008B40234320FA0EF706FA01F44FEA134C9E
:1086000026FA0EF63C43B6FBFCF9270C0CFB196668
:108610001FFA83F847EA064609FB08F7B74202FA51
:1086200001F200FA01FA08D9F61809F1FF3041D237
:10863000B7423FD9A9F102091E44F61BA0B2B6FB0E
:10864000FCF40CFB146640EA064704FB08F8B84546
:1086500007D9FF1804F1FF3028D2B84526D9023CCB
:108660001F4444EA0940C8EB0707A0FB02894F45B5
:1086700044464E4614D329D065B3BAEB040367EBE6
:10868000060707FA0EFECB40CF404EEA030385E80B
:1086900088000021BDE8F0871346F8E61046E0E6C2
:1086A000B8EB020469EB03060138E5E70446D8E7B6
:1086B000114695E78146C0E78A467CE7023B3C4489
:1086C00048E708460AE702383E442FE7C245E7D3A9
:1086D0003E46D1E72946BDE8F08700BF704700BF9E
:1086E00010B5054C13462CB10A4601460220AFF3E3
:1086F000008010BD204610BD0000000010B5431ED4
:108700000A44914204D011F8014B03F8014FF8E7F5
:1087100010BD02440346934202D003F8011BFAE75E
:108720007047000038B5124B1C68A36B0546D3B9DF
:108730001820FDF7B3FB43F20E33A06303804AF623
:10874000CD33438041F2342383804EF26D63C38086
:108750004DF6EC630381052343810B2383810122C2
:108760000023C0E90423A36B00221D615A6138BDB8
:1087700044DC032010F8012B11F8013B012A28BF2B
:108780009A42F7D0D01A7047034611F8012B03F82C
:10879000012B002AF9D17047034613F8012B002A58
:1087A000FBD1181A0138704721400D005D400D00C3
:1087B00089400D008D400D000000000044454D4FE4
:1087C000004F4646004D4F4445204C004D4F444518
:1087D0002054004D4F44452055002020006368611F
:1087E0006E67654D515454006368616E67654E65F0
:1087F00074776F726B004C756D696E61726961732D
:1088000000436F6E656374616E646F20636F6E20EA
:10881000736572766572204D51545400616E79749F
:1088200068696E67006172676F6E436C69656E742C
:10883000006368616E67654D6F6465002F004C755D
:108840006D696E6172696100436F6E656374616E1C
:10885000646F20636F6E20736572766572204D5170
:10886000545420436F6E66696700436F6E6E65787F
:10887000696F6E204D51545420434F4E4649472056
:10888000657869746F736100436F6E6E6578696FA8
:108890006E204D51545420657869746F73610043A4
:1088A0006F6E656374616E646F20636F6E207365B5
:1088B0006E736F72657320494E413231392E2E2E00
:1088C00021004D696469656E646F20564F4C5441B8
:1088D0004A45207920434F525249454E5445206322
:1088E0006F6E20494E41323139202E2E2E00656C9C
:1088F0006965636572313930380041525455524FC1
:108900002056454C415A5155455A006E6577446191
:10891000746100525353493A20003230392E3138B5
:10892000322E3231382E313735003139322E313650
:10893000382E302E360000044D5154540400064D9C
:108940005149736470030000B824000094110000C2
:1089500058020000A4060000580200002602000091
:108960005802000026020000580200002602000003
:1089700058020000260200005802000026020000F3
:1089800058020000260200005802000026020000E3
:10899000580200002602000058020000A406000051
:1089A00026020000A406000058020000A4060000F1
:1089B000580200007206000058020000A4060000E1
:1089C00058020000A406000026020000A4060000D1
:1089D0005802000026020000580200002602000093
:1089E00058020000A406000026020000A4060000B1
:1089F0005802000026020000580200002602000073
:108A00005802000026020000580200002602000062
:108A100058020000A406000026020000A406000080
:108A20005802000026020000580200002602000042
:108A300058020000A406000026020000A406000060
:108A400058020000A4060000580200007206000050
:108A500058020000EA240000C611000026020000AF
:108A6000A406000058020000260200005802000080
:108A700026020000580200002602000058020000F2
:108A800026020000580200002602000058020000E2
:108A900026020000580200002602000058020000D2
:108AA0005802000026020000A40600005802000040
:108AB0007206000058020000A406000058020000E0
:108AC0007206000058020000A406000058020000D0
:108AD000A406000026020000A406000058020000C0
:108AE0002602000058020000260200005802000082
:108AF0002602000058020000720600008A020000F0
:108B00002602000026020000580200002602000093
:108B1000260200008A020000260200002602000051
:108B2000A406000058020000A4060000260200006F
:108B3000A4060000580200002602000058020000AF
:108B4000A406000026020000A4060000580200004F
:108B5000A40600005802000072060000580200003F
:108B6000EA2400009411000058020000A40600004E
:108B700058020000260200005802000026020000F1
:108B800058020000260200005802000026020000E1
:108B900058020000260200005802000026020000D1
:108BA00058020000260200005802000026020000C1
:108BB00058020000A406000026020000A4060000DF
:108BC00058020000A40600005802000072060000CF
:108BD00058020000A406000058020000A40600008D
:108BE00026020000A40600005802000072060000E1
:108BF0008A0200002602000026020000580200003F
:108C000026020000A4060000580200002602000010
:108C10005802000026020000580200002602000050
:108C20005802000026020000580200002602000040
:108C300058020000A406000058020000720600005E
:108C4000580200002602000058020000A40600009E
:108C500026020000A406000058020000A40600003E
:108C60005802000072060000580200008025000033
:108C70009411000058020000A406000058020000F1
:108C800026020000580200002602000058020000E0
:108C900026020000580200002602000058020000D0
:108CA00026020000580200002602000058020000C0
:108CB00026020000580200005802000026020000B0
:108CC000A406000058020000A4060000580200009C
:108CD0007206000058020000A406000026020000F0
:108CE000A406000058020000A4060000580200007C
:108CF0007206000058020000580200002602000020
:108D0000260200008A02000026020000260200005F
:108D10005802000026020000A406000058020000CD
:108D2000260200005802000026020000580200003F
:108D30002602000058020000A406000058020000AD
:108D40007206000058020000A4060000260200007F
:108D5000A40600005802000026020000580200008D
:108D6000A406000058020000A4060000260200002D
:108D7000A406000058020000EA240000941100003C
:108D800058020000720600008A020000260200005D
:108D900026020000580200002602000058020000CF
:108DA00058020000260200002602000058020000BF
:108DB00058020000260200005802000026020000AF
:108DC000580200002602000058020000720600004F
:108DD00058020000A406000058020000A40600008B
:108DE00026020000A406000058020000A4060000AD
:108DF000580200007206000058020000A40600009D
:108E0000260200005802000058020000260200005E
:108E100058020000720600005802000026020000FE
:108E200058020000A40600005802000026020000BC
:108E3000580200002602000058020000260200002E
:108E4000580200007206000058020000A40600004C
:108E500058020000260200005802000072060000BE
:108E6000580200002602000058020000A40600007C
:108E700058020000A406000026020000A40600001C
:108E8000580200004E250000941100005802000016
:108E9000A40600005802000026020000580200004C
:108EA00026020000580200002602000058020000BE
:108EB00026020000580200002602000058020000AE
:108EC000580200002602000026020000580200009E
:108ED0002602000058020000A4060000580200000C
:108EE000A406000026020000A406000058020000AC
:108EF000A40600005802000072060000580200009C
:108F0000A406000058020000720600008A02000059
:108F100072060000580200002602000058020000FD
:108F2000260200005802000058020000260200003D
:108F3000260200005802000026020000580200002D
:108F40005802000026020000260200008A020000EB
:108F50002602000026020000A406000058020000BD
:108F6000A406000058020000A4060000260200002B
:108F7000A406000058020000A406000058020000E9
:108F8000A406000026020000A4060000580200000B
:108F90004D4F4445204D007B00226964223A002257
:108FA00065303066636536386461356664356364A0
:108FB000303964383230373822002C00226E616D2F
:108FC00065223A00224269626C696F7465636122AE
:108FD00000226D6F6465223A002264617461223A56
:108FE00000226C6564223A0022766F6C74616765BA
:108FF000223A002263757272656E74223A007D0017
:10900000227076223A002262617474657279223A83
:109010000000000000000000000000003B5F0D00A9
:10902000315F0D00275F0D001D5F0D00115F0D000A
:10903000055F0D00F95E0D00F15E0D00E75E0D00AD
:10904000DD5E0D0055740D00000000000000000002
:10905000595F0D005B5F0D006E616E006F766600FC
:10906000696E6600626175640053657269616C00C7
:1090700053657269616C310074797065007061725A
:10908000616D00636D6400696400686E64007374F0
:10909000726D0066696C74006C766C006164644883
:1090A000616E646C65720072656D6F766548616EA5
:1090B000646C657200656E756D48616E646C657296
:1090C00073004A534F4E53747265616D4C6F67481D
:1090D000616E646C657200617070002530313075AE
:1090E00020005D20002C200028293A2000205B0071
:1090F000636F6465203D20002569006465746169C3
:109100006C73203D20000D0A006C6E00666E0063DB
:109110006F64650064657461696C006E6F6E6500F4
:10912000747261636500696E666F007761726E00CC
:109130006572726F720070616E696300616C6C00C1
:10914000252B3033643A253032750025592D256D95
:109150002D25645425483A254D3A2553257A00613A
:10916000736374696D65000000000000000000007A
:1091700035670D0025670D0027670D000000000012
:10918000000000004D680D009D680D00AB680D00EB
:1091900035630D0089680D004F680D0065680D008E
:1091A00097680D007B680D0049680D000000000005
:1091B0000000000059690D00A9690D00B7690D0094
:1091C00035630D006D690D008F690D007B690D0021
:1091D000A3690D005B690D005F690D0000000000D0
:1091E000000000005D6A0D00A76A0D007F6A0D0097
:1091F0005F6A0D00876A0D008F6A0D00976A0D0087
:109200009F6A0D000000000000000000796B0D0057
:109210006F6B0D00656B0D005B6B0D004F6B0D00F0
:10922000436B0D00376B0D002F6B0D00256B0D0090
:109230001B6B0D0055740D000000000000000000C5
:10924000056D0D000B6D0D00F3710D00196D0D0016
:10925000076D0D00000000000000000051470D00E8
:1092600085470D007D6C0D00976C0D0099700D0009
:10927000EB6D0D00BD6D0D00C16C0D00756F0D0027
:10928000716E0D001F6E0D0069700D00C36C0D0036
:10929000FB6C0D00A96C0D001D6D0D009D6D0D008A
:1092A000776972696E670072656376206572726FA6
:1092B00072203D2025640000000000000000000036
:1092C000BF720D00B5720D00AB720D0085410D002F
:1092D0008F410D009F720D0093720D008B720D0077
:1092E00081720D0077720D0055740D0000000000B2
:1092F000000000000B720D0069720D000D720D0070
:10930000FD720D0011720D00C9720D003D720D004D
:109310000000000000000000ED730D00F7730D0069
:1093200001740D000B740D0015740D0021740D00F7
:109330002D740D0039740D0041740D004B740D0037
:1093400055740D0000000000000000000000000047
:10935000000000000000000000000000000000000D
:1093600000000000000000000000000000000000FD
:1093700000000000000000000000000000000000ED
:1093800000000000000000000000000000000000DD
:1093900000000000000000000000000000000000CD
:1093A0000000000043000000BB400D00B1460D006E
:1093B000AB4F0D0017510D0075590D00455F0D00A5
:1093C000995F0D0025630D00ED650D00FD650D0035
:1093D00035660D002D6C0D00D9730D0021750D0043
:1093E0005D760D00F1760D0075770D0039780D0072
:1093F000FD780D00000000000000000000000000EB
:08940000F8EFFF7F01000000FE
:109408005F910D000000000044930D0064930D006F
:1094180084930D0000000000000000000000000020
:1094280000000000A4930D000000000000000000F0
:109438000000000000000000000000000000000024
:109448000000000000000000000000000000000014
:109458000000000000000000000000000000000004
:0894680000000000E4DB03201A
:10947000FFFFFFFF00000102030405060708090AB9
:109480000B0C0D0E0F101112131415161718191AB4
:089490001B1C1D1E1F202800FB
:0494980078563412BC
:04000003D0004020C9
:00000001FF
