:02000002D0002C
:1040000000400D005C940D00000006000C0005014E
:084010000401DB0700000000C1
:044018002C880D00E3
:1040200009480A49884208B505D0094A824202D0A7
:10403000121A04F093FB0748074A0021121A04F0F1
:104040009BFB014808BD00BF40DE0320CC930D0060
:10405000A8DE0320A8DE0320F0E7032070B5074E9A
:10406000074C02F0EBFBA41BA4080025A54200D1DD
:1040700070BD56F8043B98470135F7E78C930D0067
:10408000B4930D0000F084BA08B500F0D7FABDE88B
:10409000084002F095BB01F077BF01F075BF01F059
:1040A0007BBF01F079BF0078B0FA80F0400970471B
:1040B0000123037070470000F8B502F1080323F0F4
:1040C000070300AFADEB030D14460546684604F048
:1040D00045FB1F49002368460DF8043004F078FBC7
:1040E0006E460146B0B91B4801F0FEF802F0C8FC6C
:1040F000294602F0F3F902F0C3FC174902F0EEF989
:1041000002F0BEFC314602F0FCF9642002F016FB1E
:10411000BD46F8BD1149684604F05AFB08B90121B3
:10412000E1E70F49684604F053FB08B90221DAE7DA
:104130000C49684604F04CFB08B90321D3E70A494F
:10414000684604F045FB08B90421CCE70521CAE71D
:1041500040880D0088DF03205E880D0045880D0033
:1041600049880D0050880D0057880D0010B5044691
:1041700000F5CB6002F046F8204610BD10B50446AD
:10418000006808B101F008FF204610BD0022406819
:10419000114601F099BE002340681A46194601F005
:1041A0009BBE2DE9F043804695B0144699460D46D6
:1041B00029B3084604F01EFB074614B3204604F05A
:1041C00019FB06463822002106A804F0D5FA4C2334
:1041D000CDE901351C9B8DF819300023D8F8040077
:1041E000059601AA1946CDE903748DF8189001F0DF
:1041F00093FEB0FA80F0400915B0BDE8F0830F4699
:10420000DBE72646DEE707B5002300931A46FFF7F3
:10421000C8FF03B05DF804FB2DE9F04102F108038B
:104220008AB023F0070302AFADEB030D02AE1446D4
:104230008046304604F092FA00233949335540460F
:1042400004F0C6FA044698B93146384602F025F81B
:1042500003F066FA10223946204601F099FC3148F5
:1042600040F25B72314600F00BFC384601F0CAFFA9
:104270002D49404604F0ACFA054698BB2B492C4C1E
:10428000384602F00AF8294907F1100002F005F853
:1042900028483246394600F07FFF60682A460221EE
:1042A00001F00AFE2B462A462946606801F03CFED2
:1042B00021492046FFF7A7FFBB694BBB3968204661
:1042C000FFF7A1FF1A48FFF766FF002360681A4650
:1042D000194601F0E1FD07F1100001F093FF3846A7
:1042E00001F090FF02F0CCFB414602F0F7F802F03B
:1042F000C7FB124902F0F2F802F0C2FB314602F0AD
:1043000000F9642002F01AFA2037BD46BDE8F081BA
:104310003A693968009503232046FFF742FFD1E749
:1043200061880D00C4DE03206C880D0060880D00DC
:10433000B0E7032088DF03207A880D005E880D0037
:1043400090B59DB000AF02F09BFB624902F0D9F836
:104350006149384601F0A1FF03F0E2F91022394625
:10436000002001F00DFCBB681BB95C49384601F028
:10437000C2FFBA6802F1080323F00703ADEB030D97
:1043800069460023384602F04CF840F25B726946F9
:10439000534800F075FB02F073FB044607F1600020
:1043A00001F0E2FD396E204602F0ABF807F1600043
:1043B00001F028FF07F1600001F0D6FD494B3A6E8D
:1043C0004949474800F04AFC07F1600001F01AFF34
:1043D000464907F1100001F060FF07F1100107F1F5
:1043E000500001F07DFF424907F1500001F0F2FF5B
:1043F000044607F1600001F0B7FD07F160012046B7
:1044000001F0DCFF014607F1200001F069FF07F130
:10441000600001F0F7FE07F1500001F0F3FE07F134
:10442000100107F1400001F05BFF314907F1400046
:1044300001F0D0FF2F49044607F1500001F02DFF95
:1044400007F15001204601F0B9FF0A22044601217C
:1044500007F1600001F061FF07F16001204601F003
:10446000ADFF014607F1300001F03AFF07F16000AF
:1044700001F0C8FE07F1500001F0C4FE07F1400052
:1044800001F0C0FE164800F0EDFA044670B139693B
:104490001348022200F0BEFD396A1148022200F0E2
:1044A000B9FD396B0E48022200F0B4FD07F130006F
:1044B00001F0A8FE07F1200001F0A4FE07F11000B2
:1044C00001F0A0FE384601F09DFE20467437BD463F
:1044D00090BD00BF85880D0060880D00A0880D008C
:1044E000C4DE0320AE880D00B7880D00C3880D0020
:1044F000CE880D00D0880D001FB502F0C1FA10491A
:1045000001F0FFFF684601F02FFD0E4B009A0E49A7
:104510000E4800F0A3FB684601F074FE0B4800F063
:10452000A1FA044648B10A490848022200F072FD87
:1045300008490648022200F06DFD204604B010BD77
:10454000DA880D00AE880D00B7880D001CDF03204F
:104550006C880D0061880D0008B5FFF7F1FE70B999
:10456000FFF7CAFF0028F8D002F08AFA064901F0E6
:10457000C8FFBDE808404FF47A7002F0DFB802F0DF
:104580007FFA0249F3E700BFFC880D001A890D008D
:1045900038B50121072003F053F802F071FA4FF407
:1045A000E13102F061FA02F06BFA1F491F4C01F091
:1045B000A8FF1F4800F0DEFD02F062FA1D4901F07D
:1045C000A0FF1D492046FFF71EFE2046FFF7E3FD32
:1045D000002360681A46194601F05EFC254628460D
:1045E000FFF7D4FD10B901F0B7FCF8E70F48FFF76B
:1045F000CDFD02F045FA002211460546606801F043
:1046000043FC00F15D01284601F07BFF07200121FA
:1046100003F027F80548FFF7B9FD18B1BDE83840A9
:10462000FFF79ABF38BD00BF31890D00B0E7032006
:1046300088DF032054890D007A880D0030B53E488C
:104640008FB000F00FFA002865D03B4800F0D3FB94
:104650003A4D3B4C3B482A46214600F073FE01F0A0
:104660007FFA394A136803F59C530833834250D2CA
:10467000214610602A46334800F0C8FED5ED000AF6
:1046800094ED000A2F4801F009F902F0F9F994EDD0
:10469000000A022102F031F82A492B46224601A8DD
:1046A00000F008FF27482A46214600F0F8FE22487D
:1046B00000F0D8F950B3019A24491F4800F053FB89
:1046C000072002F0E7FFB0FA80F14909072002F065
:1046D000C8FF1F4905A802F091FE05A802F06AFE76
:1046E000044602F0CDF91B4901F0F8FE02F0C8F9CA
:1046F000002C05461DDA2D2101F0F4FE61420A224C
:10470000284601F008FF284601F0EFFE01A801F05D
:1047100079FD0FB030BD104800F0A4F908B10E4883
:1047200094E70B48FFF732FD002891D0FFF714FF04
:104730008EE72146E3E700BFC4DE0320B8DE032096
:1047400000E6032088DF032084DF032080890D003A
:10475000B0E7032088890D001CDF032070B5224DCF
:10476000224B234CAB6000262E60AE80AE7102203F
:1047700001F05EFB22461F4928461F4D03F026F834
:104780003146012001F064FB0121284600F094FC31
:1047900028461A4D1A491B4E224603F017F81A4BA9
:1047A0001A4940F25B72284600F060F82846184D1E
:1047B0002246314603F00AF8164B174940F25B7265
:1047C000284600F053F82846144D2246314602F0A0
:1047D000FDFF1349284601F060FD22462846114995
:1047E000BDE8704002F0F2BFACDE03200000FFFF26
:1047F000A8DE03207D410D0088DF0320C4DE0320F6
:104800006D410D0069500D00B9400D008F890D00FC
:104810001CDF032019420D009F890D0074DF032067
:10482000A0880D0005620D0038B51D46059B036389
:1048300000230446436302B1826419B104F13800D5
:1048400001F059FD049B2365069BE069A4F84C50D8
:10485000FF2BB8BFFF23A4F8543008B1FFF721FCA9
:10486000B4F85400FFF719FCE06138BD2DE9FF41B1
:1048700004460026174698460D4602F0F3FC0B4905
:10488000E66104F1380001F008FDFF23CDE9018362
:104890000F2300932046A6643B4632462946FFF785
:1048A000C3FF204604B0BDE8F08100BF60880D0062
:1048B00010B50446204602F031FC0028FAD020460C
:1048C00002F0E5FAC0B210BD2DE9F0470546C46913
:1048D0000F46FFF7EDFF2070EB6993F800A04FF053
:1048E00001090AF0F00A4FF000084C462846FFF78D
:1048F000DFFF2646EB69985500F07F0313FB09F3B1
:10490000984401340306A4B21FFA88F84FEAC91983
:10491000ECD4631EBAF1300F3B7024D12846EF6906
:10492000FFF7C6FF38552846EF69F41CFFF7C0FFB4
:104930000236B6B2A4B2B8550226B6B2B146274680
:10494000C14512D22846FFF7B3FFB5F85430BB4239
:1049500088BFEB6909F1010988BFD8550137BFB29B
:104960001FFA89F9ECE70026E7E7A8EB0600B04557
:104970002CBF064600263444B5F85400A4B2A04229
:104980002CBF20460020BDE8F087F7B58C461E46B8
:104990001D4607460023AE4602A805F07F01BEF182
:1049A0007F0F03F10104034488BF41F08001BEF191
:1049B0007F0F4FEAD515E4B203F8041C10D8C4F1F8
:1049C0000403D11802F803C0C4F10503134401A87D
:1049D0000532934206D010F8015B03F8015BF8E75B
:1049E0002346D8E7721C2244384602F079F905467E
:1049F00001F0B6F8621C78623244A8B2131A584229
:104A0000584103B0F0BD10B5C369E0221A70C36904
:104A100000225A70C1690446022202F061F9204660
:104A200002F0D6FB01F09CF8C4E9090010BD023386
:104A3000F0B5044698B20023CD5C55B1B4F854608B
:104A4000864203F1010704D9461C15543B46B0B217
:104A5000F2E799B2441A2244091202F8021C02F841
:104A6000013CF0BD38B5044602F050F9002814BFEF
:104A70000125002502D1204602F0AAFB284638BDB8
:104A800070B504460E461546FFF7ECFF10B1204600
:104A9000FFF7B9FF314604F1380001F02CFC002388
:104AA000A364A4F84C5070BD2DE9F04786B00446CD
:104AB000DDF838809DF848A0894617461E46FFF766
:104AC000D1FF0546002840F0C380A16C002940F0CA
:104AD00087800346B4F84C20A16B204602F01CFAF4
:104AE000002879D0012323849DF84C30E269042BFF
:104AF00040F08180574B186899889B79ADF8041075
:104B00008DF806300090C2F805009DF80630BDF81B
:104B10000410A2F80910D3720C23B8F1000F7ED054
:104B20009DF840009DF83C20400140EAC20040F062
:104B30000600C0B2BAF1000F01D100F0FD001FB1B4
:104B4000002E6ED140F08000E269D054226DE16900
:104B5000581C12120A549A1CE169206D88540333C0
:104B6000E26949462046FFF762FF0346B8F1000FAD
:104B70000BD0E26941462046FFF759FFE2691199DF
:104B800003462046FFF753FF034667B1E269394603
:104B90002046FFF74CFF03462EB1E269314620461E
:104BA000FFF745FF0346053BE2699BB21021204613
:104BB000FFF7EBFE00F0D4FFC4E909004FF47A766A
:104BC000204602F0ABFA78BB00F0CAFFA36AC01A15
:104BD000236D73439842F3D9204602F0F9FA33E08B
:104BE000684601F0E5FEB4F84C202B4669462046A5
:104BF00002F018FA74E7184B186859681B7AEC46EB
:104C0000ACE803008CF800306B4603CBC2F805001B
:104C1000C2F809109CF8003053730E237DE7022080
:104C200088E740F0C0008FE769462046FFF74CFE5A
:104C30000428D1D1E369DE78002ECDD100F090FFB9
:104C40000125A06284F82C60284606B0BDE8F087F4
:104C50000025F9E7AB890D00B2890D0010B54FF0C2
:104C6000040C86B00124CDE9044C0024CDE90244B3
:104C7000CDE90044FFF718FF06B010BD2DE9F14F54
:104C8000DDF834809DF828A09DF82C509DF83090D8
:104C900004468B4616461F46FFF7E4FE002850D018
:104CA000B4F85420E069002103F066FD0523E269B1
:104CB00059462046FFF7BBFE6B1E012B15D8238CEF
:104CC000E26901339BB223841B121354411CE36934
:104CD000228C89B202305A5480B2B8F1000F04D04D
:104CE000238C5A1C2284A8F8003000210B188F4214
:104CF000E2699BB20AD9B4F854C09C4506D916F8AB
:104D000001C002F803C0013189B2EFE7BAF1000F28
:104D10000CBF30213121B9F1000F01D041F0080161
:104D2000022D09D141F00401053B9BB2204601B0A0
:104D3000BDE8F04FFFF729BE012D08BF41F0020189
:104D4000F2E701B0BDE8F08F1FB5089C0394002482
:104D500002949DF81C4001949DF818400094FFF7C0
:104D60008DFF04B010BD30B587B0044610460591E4
:104D7000049203F03FFD00250346CDE90155DDE92E
:104D8000042100952046FFF7DFFF07B030BD38B59E
:104D900004460D46FFF766FE90B1E36962221A7081
:104DA000E36902225A70E3692A129A70E369DD709E
:104DB000E1690422204601F093FF003818BF01206A
:104DC00038BD38B504460D46FFF74CFE90B1E36997
:104DD00072221A70E36902225A70E3692A129A70E9
:104DE000E369DD70E1690422204601F079FF0038B3
:104DF00018BF012038BD2DE9F04F2DED028B87B093
:104E000000AF0446FFF72EFE8146B0B100F0A8FEC9
:104E1000226D4FF47A735343A26A821A9A4206466D
:104E200003D8626A821A93421DD294F82C305BB187
:104E3000204602F0CDF94FF0000948461C37BD4628
:104E4000BDEC028BBDE8F08FE269C0211170E26910
:104E50005370E1690222204601F042FFC4E909666D
:104E6000012384F82C30204602F058F90028E4D0C1
:104E700007F117012046FFF727FD83460028DCD005
:104E8000E369A662197801F0F002302A7FD1D4F8E4
:104E900030A0BAF1000FD0D097F817C06A4608EEDC
:104EA000102A03EB0C025578917801EB05218DB2A5
:104EB00005F108026946D208A1EBC20295460CF141
:104EC0000302FA6003EB020E0DEB05026846C7F819
:104ED00008D07A60D7E901218A4206D00A461EF836
:104EE000018B02F8018BBA60F4E70022425593F877
:104EF0000080F96808F00608ABEB0C02033AB8F141
:104F0000020FA2EB0502294425D113F801E0194450
:104F1000023A91F801B00CF10501294419440BEB58
:104F20000E2BD047E36940221A70E3691FFA8BFB0E
:104F300083F80180E3694FEA2B229A70E36983F8D2
:104F400003B0E1690422204601F0CAFE666218EE51
:104F5000103A9D4671E7B8F1040F15D113F801E03E
:104F60001944023A91F801B00CF1050129441944A1
:104F70000BEB0E2BD047E36950221A70E369022233
:104F80001FFA8BFB5A70D5E71944D047DFE7502A48
:104F900008D19A78D97801EB022189B22046FFF72F
:104FA000F6FE4AE7402A12D1626B002A3FF445AF71
:104FB000BBF1040F7FF441AF11F0060F7FF43DAF5A
:104FC0009978D87800EB012080B2904735E7602AC5
:104FD00008D19A78D97801EB022189B22046FFF7EF
:104FE000F0FE2AE7702ADFD0902A3FF426AFC02ACD
:104FF0000AD1D0221A70E36900225A70E1690222B4
:10500000204601F06DFE18E7D02A04BF002384F883
:105010002C3012E737B5044601911546FFF722FD03
:10502000F8B1238C019901339BB2C3B12384238C43
:10503000E2691B125371E369228C9A71E2690723BA
:105040002046FFF7F4FCE3691D540438E26983B29B
:105050008221204603B0BDE83040FFF796BC012313
:10506000E4E703B030BD000038B50546FFF7FAFCB1
:1050700010B12846FFF7C7FCE86908B1FFF711F83F
:1050800005F1380001F0BEF8AC690A4B2B607CB129
:105090006368013B63605BB9236820469B6898475F
:1050A000A368013BA3601BB923682046DB689847CF
:1050B000284638BDC4910D00F8B54FF486720E46EF
:1050C0002449044603F04AFB4FF48672A018224993
:1050D00003F044FB21494FF4867204F5067003F097
:1050E0003DFB1F494FF4867204F5497003F036FB0F
:1050F0001C494FF4867204F58660002503F02EFBF0
:1051000001274FF48672184904F23C5003F026FB45
:105110001649C4F84C56C4F85076C4F8545604F5F1
:10512000CB6001F0BAF8C4F84C66013E092E104B72
:10513000C4F86856C4F86C3684F87056C4F87456CF
:1051400094BFC4F85056C4F85076C4F8545620465C
:10515000F8BD00BF3C8A0D00488B0D00548C0D003B
:10516000608D0D006C8E0D00788F0D0049880D004C
:10517000E093040008B5054800F043FC044800F043
:1051800040FCBDE80840034800F03BBC0CE60320AF
:105190002CE603201CE603202DE9F0410C462046B6
:1051A0000E49DFF83880174601F0A5F800252E4695
:1051B000EBB2F95C79B1262908D1701CC6B2414620
:1051C00004EB061001F097F80135F1E704EB061047
:1051D00001F0E7F8F8E7BDE8F08100BF60880D0056
:1051E00010B5D0F848364FF47A720C465A438021F5
:1051F0000E2002F079FA002C04DD2046BDE81040B4
:1052000000F0A6BC10BD10B5D0F848364FF47A7245
:105210000C465A4300210E2002F066FA002C04DDF1
:105220002046BDE8104000F093BC10BD08B5C0F8A2
:10523000481601210E2002F003FA00210E2002F090
:1052400010FABDE8084001210E2002F0F9B92DE95D
:10525000F84304460F46904699460526494620469F
:10526000FFF7E4FF002545450BDAEB0757F825105B
:10527000204603D5FFF7C7FF0135F4E7FFF7B0FF7E
:10528000FAE700212046FFF7BEFF642001F056FA3E
:10529000013EE3D1BDE8F883032938B54FF043025E
:1052A00000F5CB654FF0260309D100F54971FFF7F2
:1052B000CEFF0A492846BDE8384001F01CB8042951
:1052C00005D100F23C51FFF7C2FF0549F2E700F5B6
:1052D0008661FFF7BCFF0349ECE700BF50880D0073
:1052E00057880D00BB890D0010B5044659B9014619
:1052F00026234322FFF7ABFF0F4904F5CB60BDE83F
:10530000104000F0F8BF012907D100F5867126236F
:105310004322FFF79CFF0949EFE7022907D100F577
:10532000067126234322FFF792FF0549E5E7BDE812
:105330001040FFF7B1BF00BF40880D0045880D0049
:1053400049880D0070B52DED068BD0F8503607EE6C
:10535000903A064613200D461446F8EEE78A02F00E
:10536000ACF9D6F8543607EE900A07EE103AF8EE8C
:10537000E77AB8EEC78A2248A8EEA78A00F080FB39
:105380002048B0EE40AA00F067FB1E48F0EE409ABD
:1053900000F076FB1C48B0EE409A00F05DFB1A4826
:1053A000F0EE408A00F06CFB95ED007A37EE088A4B
:1053B00085ED008AD4ED006A36EE8A7A84ED007AB3
:1053C000D5ED016A36EEA97A85ED017AD4ED016A50
:1053D00036EE897A84ED017AD5ED026A36EEA87A46
:1053E000BDEC068B85ED027AD4ED027A37EE800AA9
:1053F00084ED020AD6F874360133C6F8743670BDEF
:105400001CE603202CE603200CE60320D0F87436BB
:10541000D1ED006A07EE903AF8EEE77A86EEA77AC9
:1054200081ED007AD0F87436D2ED006A07EE903A3A
:10543000F8EEE77A86EEA77A82ED007AD0F8743635
:10544000D1ED016A07EE903AF8EEE77A86EEA77A98
:1054500081ED017AD0F87436D2ED016A07EE903A08
:10546000F8EEE77A86EEA77A82ED017AD0F8743604
:10547000D1ED026A07EE903AF8EEE77A00F2746333
:1054800086EEA77A81ED027AD3ED007AD2ED026A38
:10549000F8EEE77A86EEA77A82ED027A704700236B
:1054A0000B6013604B6053608B6093600023C0F807
:1054B000743670472DE9F04FDFF86C93CF4DDFF86D
:1054C0006CA3DFF86CB38BB004460E464946904699
:1054D0001F4600F0E2FE214606A800F001FFC84981
:1054E00006A800F077FFC74900F074FF294600F0D6
:1054F00071FF0146204600F0E4FE06A800F082FE9F
:10550000214606A800F0ECFEBF4906A800F062FFA5
:10551000BE4900F05FFF294600F05CFF01462046CF
:1055200000F0CFFE06A800F06DFE214606A800F0B0
:10553000D7FEB74906A800F04DFF514600F04AFFDC
:1055400006F5CB6100F03AFF514600F043FF2946D3
:1055500000F040FF0146204600F0B3FE06A800F030
:1055600051FE214606A800F0BBFEAA49DFF8C4A2FE
:1055700006A800F02FFF494600F02CFF0146204608
:1055800000F09FFE06A800F03DFE214606A800F0B0
:10559000A7FEA14906A800F01DFF494600F01AFF2A
:1055A0000146204600F08DFE06A800F02BFE2146A5
:1055B00002A800F095FE594602A800F00BFF98EDF6
:1055C000000A0646062106A800F0BAFE06A93046E3
:1055D00000F0F4FE294600F0FDFE0146204600F0F2
:1055E00070FE06A800F00EFE02A800F00BFE214699
:1055F00002A800F075FE514602A800F0EBFE97ED00
:10560000000A0646062106A800F09AFE3046834EA0
:1056100006A900F0D3FE314600F0DCFE014620462C
:1056200000F04FFE06A800F0EDFD02A800F0EAFD34
:10563000214606A800F054FE294606A800F0CAFE3E
:105640000146204600F03DFE06A800F0DBFD2146A5
:1056500006A800F045FE724906A800F0BBFE4946C8
:1056600000F0B8FE0146204600F02BFE06A800F030
:10567000C9FD214602A800F033FE594602A800F0F9
:10568000A9FE98ED010A0190062106A800F058FE37
:10569000019B06A9184600F091FE294600F09AFEEB
:1056A0000146204600F00DFE06A800F0ABFD02A862
:1056B00000F0A8FD214602A800F012FE514602A803
:1056C00000F088FE97ED010A0190062106A800F07F
:1056D00037FE019B06A9184600F070FE314600F027
:1056E00079FE0146204600F0ECFD06A800F08AFD98
:1056F00002A800F087FD214606A800F0F1FD29462A
:1057000006A800F067FE0146204600F0DAFD06A874
:1057100000F078FD214606A800F0E2FD414906A808
:1057200000F058FE494600F055FE0146204600F0C4
:10573000C8FD06A800F066FD214602A800F0D0FDD5
:10574000594602A800F046FE98ED020A814606215D
:1057500006A800F0F5FD06A9484600F02FFE2946F0
:1057600000F038FE0146204600F0ABFD06A800F030
:1057700049FD02A800F046FD214602A800F0B0FD58
:10578000514602A800F026FE97ED020A05460621C2
:1057900006A800F0D5FD06A9284600F00FFE314608
:1057A00000F018FE0146204600F08BFD06A800F030
:1057B00029FD02A800F026FD214606A800F090FD74
:1057C000314606A800F006FE0146204600F079FDAD
:1057D00006A800F017FD214606A800F081FD31461D
:1057E00006A800F0F7FD0146204600F06AFD06A875
:1057F00000F008FD20460BB0BDE8F08FE5890D00F4
:10580000C4890D00CA890D00E7890D00EF890D00DC
:10581000FC890D00048A0D000C8A0D00298A0D00F8
:105820002B8A0D00318A0D00C2890D00FA890D0006
:10583000138A0D001E8A0D0038B50D460446134923
:10584000284600F0DCFD28B101212046BDE83840A3
:10585000FFF74ABD0E49284600F0D1FD08B10221EC
:10586000F3E70C49284600F0CAFD28B10321204681
:10587000BDE83840FFF710BD0749284600F0BFFDDE
:1058800008B10421F3E70521F1E700BF45880D00C9
:1058900049880D0050880D0057880D00F3EE007AFE
:1058A000B4EEE70AF1EE10FA1FB5044624DBDFED93
:1058B000157AF4EEE70AF1EE10FA1DD5012380F80F
:1058C000703600F04DF9D4F86836D4F86C261344DD
:1058D000834215D2C4F8680604F5CB61684600F02F
:1058E000FFFC69462046FFF7A7FF684600F08AFCE8
:1058F000002384F8703603E094F87036002BE0D172
:1059000004B010BD0000164308B54421064800F05D
:1059100073F84121054800F06FF8BDE808400448DD
:10592000402100F069B800BF0CE603202CE60320FC
:105930001CE603200368C9B29B68184770B5064689
:1059400014460D4601F01AFF317801F0B1F901F06B
:1059500015FF036829469B68984701F00FFF210A4D
:10596000FFF7E8FF01F00AFFE1B2FFF7E3FF01F004
:1059700005FFBDE8704001F0A3B970B504461546B7
:105980000E4601F0FBFE217801F092F901F0F6FEDF
:10599000036831469B68984701F0F0FE01F090F9EA
:1059A000012000F0CBFE01F0E9FE2178022201F097
:1059B0007CF901F0E3FE03685B699847044601F057
:1059C000DDFE03685B69984740EA0420288070BDCB
:1059D00010B54FF480520A23C0E901230223044684
:1059E000C3600521FFF7AAFF204643F61F42BDE82A
:1059F00010400021FFF7A2BF0022C0E9022201707F
:105A0000704710B5044601F0B9FE01F01FF92046B9
:105A1000BDE81040FFF7DCBF07B502210DF106021B
:105A2000FFF7ABFFBDF80600C010800003B05DF8C3
:105A300004FB13B5044682880521FFF77FFF20464B
:105A40000DF106020421FFF798FFBDF9060002B030
:105A500010BD00000000000008B5FFF7DDFF02F0F8
:105A600023F905A3D3E9002302F088F902F07EFCB4
:105A700000EE100A08BD00BFFCA9F1D24D62503FF4
:105A800010B50446FFF7D5FF07EE900AB8EEE70A17
:105A9000D4ED027AF8EE677A80EE270A10BD000096
:105AA00008B5024B1B689B68019308BD68020300A0
:105AB00008B5024B1B68DB68019308BD6802030050
:105AC00008B5024B1B685B68019308BD2C020300FC
:105AD00008B5024B1B689B68019308BD2C020300AC
:105AE00008B5024B1B68DB68019308BD2C0203005C
:105AF00008B5024B1B681B69019308BD2C0203000B
:105B000008B5024B1B685B69019308BD2C020300BA
:105B100008B5024B1B681B6B019308BD2C020300E8
:105B200008B5024B1B68DB6F019308BD2C02030014
:105B300008B5024B1B685B69019308BD6C0203004A
:105B400008B5024B1B685B68019308BD180203008F
:105B500008B5024B1B68DB68019308BD18020300FF
:105B600008B5024B1B685B69019308BD180203006E
:105B700008B5024B1B689B6A019308BD180203001D
:105B800008B5024B1B685B6C019308BD180203004B
:105B900008B5024B1B689B6C019308BD18020300FB
:105BA00008B5024B1B685B6C019308BD48020300FB
:105BB00008B5024B1B689B6C019308BD48020300AB
:105BC00008B5024B1B685B69019308BD64020300C2
:105BD00008B5024B1B681B6A019308BD64020300F1
:105BE00008B5024B1B689B6A019308BD6402030061
:105BF00008B5024B1B681B68019308BD3C020300FB
:105C000008B5024B1B68DB68019308BD3C0203002A
:105C100008B5024B1B681B69019308BD3C020300D9
:105C200008B5024B1B685B69019308BD3C02030089
:105C300008B5024B1B689B69019308BD3C02030039
:105C400008B5024B1B68DB69019308BD3C020300E9
:105C500008B5024B1B681B6A019308BD3C02030098
:105C600008B5024B1B689B6A019308BD3C02030008
:105C700008B5024B1B68DB68019308BD28020300CE
:105C800008B5024B1B689B69019308BD28020300FD
:105C900008B5024B1B68DB69019308BD28020300AD
:105CA00008B5024B1B681B6A019308BD280203005C
:105CB00008B5024B1B685B6A019308BD280203000C
:105CC00008B5024B1B689B6A019308BD28020300BC
:105CD00008B5024B1B68DB6A019308BD280203006C
:105CE00008B5024B1B681B6B019308BD280203001B
:105CF00008B5024B1B685B6B019308BD28020300CB
:105D000008B5024B1B681B6C019308BD28020300F9
:105D100008B5024B1B681B6D019308BD28020300E8
:105D200008B5024B1B689B69019308BD380203004C
:105D300008B5024B1B68DB69019308BD38020300FC
:105D400008B5024B1B681B6A019308BD38020300AB
:105D500008B5024B1B689B6A019308BD380203001B
:105D600008B5024B1B681B6B019308BD380203008A
:105D700008B5024B1B689B6B019308BD38020300FA
:105D800008B5024B1B68DB69019308BD30020300B4
:105D900008B5024B1B681B6A019308BD3002030063
:105DA00008B5024B1B681B68019308BD4C02030039
:105DB00008B5024B1B685B68019308BD4C020300E9
:105DC00008B5024B1B681B69019308BD4C02030018
:105DD00008B5024B1B685B69019308BD4C020300C8
:105DE00008B5024B1B689B69019308BD4C02030078
:105DF00008B5024B1B68DB69019308BD4C02030028
:105E000008B5024B1B681B6A019308BD4C020300D6
:105E100008B5024B1B685B6F019308BD7402030059
:105E200008B5024B1B681B6D019308BD600203009F
:105E300008B5024B1B685B68019308BD2002030094
:105E400008B5024B1B685B69019308BD2002030083
:105E500008B5024B1B68DB6A019308BD20020300F2
:105E600008B5034B1B68D3F88830019308BD0000C8
:105E70002002030008B5034B1B68D3F8943001934C
:105E800008BD00002002030008B5024B1B681B6818
:105E9000019308BD4002030008B5024B1B685B6814
:105EA000019308BD4002030008B5024B1B689B68C4
:105EB000019308BD4002030008B5024B1B68DB6874
:105EC000019308BD4002030008B5024B1B681B6923
:105ED000019308BD4002030008B5024B1B685B69D3
:105EE000019308BD4002030008B5024B1B689B6983
:105EF000019308BD4002030008B5024B1B68DB6933
:105F0000019308BD4002030008B5024B1B681B6AE1
:105F1000019308BD4002030008B5024B1B689B6A51
:105F2000019308BD4002030008B5024B1B68DB6A01
:105F3000019308BD4002030008B5024B1B681B6BB0
:105F4000019308BD4002030008B5024B1B685B6B60
:105F5000019308BD4002030008B5024B1B689B6813
:105F6000019308BD4402030008B5024B1B68DB69BE
:105F7000019308BD4402030008B5024B1B68DB6BAC
:105F8000019308BD4402030008B5024B1B681B685F
:105F9000019308BD1C02030008B5024B1B685B6837
:105FA000019308BD1C02030008B5024B1B689B68E7
:105FB000019308BD1C02030008B5024B1B68DB6B94
:105FC000019308BD1C02030008B5024B1B685B6C03
:105FD000019308BD1C020300002240681146FFF730
:105FE00093BF002240681146FFF7AEBF4068002211
:105FF000FFF7A2BF4068002281F00101FFF77CBFDC
:10600000002340681A461946FFF76EBF0023406818
:106010001A461946FFF760BF002240681146FFF795
:1060200053BF002240681146FFF73EBF4068002280
:106030000221FFF741BF002340681A46FFF72CBF3B
:10604000024B03225A60024A1A6070473CE6032062
:106050008C900D0010B5044608462170FFF790FEA5
:1060600000236360204610BD10B5094B094C022285
:1060700000201A60084B2060A080A071A360FFF789
:10608000D7FE2046054A0649BDE8104001F09EBBF8
:1060900050E6032044E603200000FFFFA8DE0320B3
:1060A0007D410D0010B5044602F0A4FB0138231811
:1060B0002046834206D90278197800F8011B03F8BC
:1060C0000129F6E710BD70B50C46911E2229054640
:1060D00022D820466DB1B5FBF2F602FB1655E9B2A7
:1060E000092D94BF30315731C9B200F8011B354634
:1060F000F0E7024623443021934202D902F8011B03
:10610000FAE71A1A834238BF00220023835420463C
:10611000FFF7C8FF204670BD0020FCE738B5031E1E
:106120000C4615460EDAB3F1004F4FF02D0214BFA6
:106130005842184601230A702A461944FFF7C3FF44
:10614000204638BD0123F9E72DE9F04757EC106BE5
:1061500080460C4610EE100A00220023394602F059
:106160007FF828B107F100431F462D2304F8013BB7
:1061700000234FF001090A22D9B2884503D902FB56
:1061800009F90133F8E7484601F08EFD32463B46F7
:1061900001F0F4FD06460F4602F050F905468A4626
:1061A00001F0B6FD02460B463046394601F02EFCA2
:1061B000134B002202F068F810B101354AF1000AD1
:1061C0004A462846D317514602F020F901231546C6
:1061D00021460A22FFF777FFB8F1000F0DD02046C5
:1061E00002F008FB2E23211823540A224346284696
:1061F0000131BDE8F047FFF766BFBDE8F08700BF9B
:106200000000E03F10B504460068FFF7C5FE2046D9
:1062100010BD10B50446006808B1FFF7BDFE0023AD
:10622000C4E90133236010BD38B504460D4600684B
:106230000131FFF7B9FE10B1C4E90005012038BDF6
:1062400010B50368044623B143688B4201D3012093
:1062500010BD2046FFF7E8FF0028F9D0A368002B07
:10626000F5D122681370F2E737B50D461146019259
:106270000446FFF7E5FF019A28B92046FFF7C9FF5A
:10628000204603B030BDA2602946206802F066FABD
:106290002268A3680021D154F2E7002313B5C0E9B6
:1062A000003304468360037341B10846019102F054
:1062B000A1FA019902462046FFF7D6FF204602B018
:1062C00010BD884210B5044605D00B682BB18A6812
:1062D0001946FFF7C9FF204610BDFFF79AFFFAE7FE
:1062E00010B500230446C0E9003383600373FFF751
:1062F000E8FF204610BD13B5044659B10846019188
:1063000002F078FA019902462046FFF7ADFF2046D9
:1063100002B010BDFFF77DFFF9E710B504468AB063
:106320000023C4E90033A3602373084601A9FFF7E3
:10633000F5FE01A92046FFF7DEFF20460AB010BD9A
:1063400030B5044600238BB0C4E90033A360237347
:1063500010EE100ACDB201F0B9FC41EC100B01A90E
:106360002846FFF7F1FE01A92046FFF7C4FF2046AB
:106370000BB030BD70B505460E4609B9002070BDA2
:106380006AB1846814442146FFF75AFF0028F5D00B
:106390002868AB683146184402F024FAAC6001204A
:1063A000EDE707B500238DF80410012201A98DF84F
:1063B0000530FFF7DFFF03B05DF804FB10B58A6816
:1063C00009680446FFF7D6FF10B92046FFF721FF02
:1063D000204610BD13B5044629B92046FFF719FF22
:1063E000204602B010BD0846019102F003FA01995F
:1063F00002462046FFF7BEFF0028EED0F0E708B5C2
:1064000082683AB921B10878B0FA80F0400900E01A
:10641000012008BD006809B90078F5E702F0D8F955
:10642000F2E758B50E462AB121B184689C4202D8E1
:1064300000230B7058BDE41A013A0168944228BF4A
:10644000144619442246304602F0DCF90023335545
:10645000F0E710B50446006808B1FFF7A9FB204635
:1064600010BD000010B5064C002320462360FFF746
:1064700097FB2046034A0449BDE8104001F0A6B945
:1064800054E60320A8DE032053640D00F8B5064649
:106490000D468F180024BD420CD0336815F8011B3F
:1064A0009B6830469847031E01DB1C44F3E7002C31
:1064B00008BF1C462046F8BD13B50446084659B12E
:1064C000019102F097F923680199DB6802462046A2
:1064D00002B0BDE81040184702B010BD08B5FFF784
:1064E000EBFF08BD03689B68184738B50D210546CA
:1064F000FFF7F8FF0A2104462846FFF7F3FF204480
:1065000038BD38B50546FFF7D7FF04462846FFF7E4
:10651000ECFF204438BD30B58BB000238DF824301B
:10652000012A98BF0A2209AC0D46B1FBF2F101FB2A
:10653000125303F0FF03092B94BF30333733DBB220
:10654000AA4204F8013DEFD92146FFF7B5FF0BB091
:1065500030BD00002DE9F74F55EC104B06460F46B5
:1065600010EE102A10EE100A2B46294601F0A0FE6C
:1065700040B153493046FFF79FFF8246504603B073
:10658000BDE8F08F25F000494E4B4FF0FF3220461A
:10659000494601F08DFE48B94A4B4FF0FF32204684
:1065A000494601F067FE08B94749E3E7474B4FF01A
:1065B00060422046294601F071FE08B14449D9E7FE
:1065C000444B4FF060422046294601F049FE002826
:1065D000F4D1002200232046294601F041FED0B12B
:1065E0002D213046FFF77EFF05F1004382461D4610
:1065F0003949DFF8EC904FF0000B00204FF0000815
:106600005FFA8BF39F4208D942464B4601F0E0FC0B
:106610000BF1010BF4E78246EAE722462B4601F034
:10662000F7F90D46044601F081FE804601F02CFB8F
:1066300002460B462046294601F0E8F90A220446A4
:106640000D4630464146FFF766FF824427B1234995
:106650003046FFF731FF8244DFF884904FF00008A6
:10666000013FFFB2FF2F89D042464B4620462946C4
:1066700001F084FB04460D4601F030FEB0F1000B42
:106680001ADA2D213046FFF72DFFCBF1000103462A
:106690000A2230460193FFF73EFF019B18448244D3
:1066A000584601F001FB02460B462046294601F000
:1066B000ADF904460D46D3E759460023E8E700BF8D
:1066C000C0900D00FFFFEF7FC4900D00FFFFEF4172
:1066D000C8900D00FFFFEFC10000E03F7E890D0074
:1066E0000000244038B5C9B20546FFF733FF044621
:1066F0002846FFF7FAFE204438BD38B5044610EEB0
:10670000100A0D4601F0E2FA41EC100B2946204632
:10671000BDE83840FFF7E6BF014B024A1A607047F8
:1067200058E60320CC900D00024B1A68024B1A6009
:10673000704700BF40DE03205CE603200021FFF726
:106740007FBB10B58368044613B103220146984706
:10675000204610BD10B50446FFF7F3FF204610BDDC
:106760000348044A04490023836001F02FB800BFA6
:1067700060E60320A8DE032055670D00014B18607A
:10678000704700BF44DE032008B50B4B43B100F057
:1067900077F903681B699847002801DDAFF3008093
:1067A000064B43B100F0EAF903681B6998470028DB
:1067B00001DDAFF3008008BD000000000000000014
:1067C00008B5FFF7E1FFFFF7CBF9014B186008BDF3
:1067D000CCE703200248034A0349121A01F0BEBF66
:1067E00000F4032004F40320C8930D0007B5002330
:1067F00000931A466FF07701FFF73CFB03B05DF89A
:1068000004FB000007B543880A2B08D0502B0BD19E
:10681000094B1B684BB103B05DF804EB1847FFF759
:10682000E5FF03B05DF804FB002300931A466FF008
:106830007701FFF71FFBF4E774E6032038B5124C2D
:106840001248134D0021FFF7BFFB2368AB42114BE9
:106850000CBF012200221A7002D0FFF7BBFF256097
:10686000FFF76EF9044601F08FFF0B4B13B1204682
:10687000AFF3008000210848FFF77EFBBDE83840F9
:1068800006480021FFF7ECBA00F403207D670D00F5
:106890001E1C279A70E603200000000005680D000A
:1068A000704710B51821044600F095FF204610BD32
:1068B000F0B5037D062B8DB00E4600F104074FF0B6
:1068C000000412D000F1080515F8011D0A22304617
:1068D000FFF721FEAF42044419D0002CF4D02E2142
:1068E0003046FFF7FFFD0444EEE72F236A463946A2
:1068F0000A208DF80040FFF763F9684601F07AFF3F
:1069000033680246DB6869463046984704462046AD
:106910000DB0F0BD10B5054B0446112240F8043B04
:10692000002101F029FF204610BD00BFF4900D00AA
:106930000346074A10B543F8042B01F1100251F841
:10694000044B43F8044B9142F9D10A781A7010BDF8
:10695000F4900D00037D042B04D14068003818BF6B
:1069600001207047062B07D143683BB983682BB9D8
:10697000C3681BB90069F1E7002070470120704728
:1069800010B59DF8084044EA032343EA024242EA74
:10699000016104234160037510BD13B5CB780093EA
:1069A0008B784A780978FFF7EBFF02B010BD000042
:1069B00010B5034B03600446FFF7EFFF204610BD00
:1069C000F4900D0041747047704708B50021007CB9
:1069D000FFF706FA40EAE07008BD08B50121007C27
:1069E000FFF7FEF940EAE07008BD08B5007CFFF74C
:1069F000EFF920EAE07008BD08B5007CFFF7E0F988
:106A000020EAE07008BD13B50446007C0191FFF751
:106A1000DFF90028019901DC607C20B1207CFFF7C0
:106A2000E7F920EAE07002B010BD007CFFF7E8B99A
:106A300010B51421044600F0CEFE204610BD000023
:106A400010B54FF47A73044608460021C4E90113D7
:106A5000044B23600123207463741146FFF7A0F9EF
:106A6000204610BD08910D00007C0022FFF7A0B960
:106A700010B514220446002101F07EFE204610BD10
:106A800010B5104C88B003A8FFF7F2FF2178BFF3D0
:106A90005B8F11F0010111D120460191FDF703FB3D
:106AA000019958B103AA0848FFF7CAFF2046FDF72D
:106AB000FFFA064A0649044800F088FE024808B07A
:106AC00010BD00BF78E603207CE60320A8DE03208B
:106AD000C9690D0070474174704708B5007CFFF725
:106AE000BFF820EAE07008BD08B5007CFFF790F819
:106AF00020EAE07008BD08B5007CFFF799F840EA8D
:106B0000E07008BD08B5007CFFF78AF840EAE07045
:106B100008BD007CFFF794B837B5457C04462DB11D
:106B2000207C03B0BDE83040FFF76AB8007C0191DB
:106B3000FFF796F800280199F2DC284603B030BD33
:106B400010B51421044600F046FE204610BD00009A
:106B500010B54FF0000C0446084611464FF47A7207
:106B6000C4E901C2044A22600122207462741A46F8
:106B7000FFF73EF8204610BD38910D0013B50E4CBE
:106B80002178BFF35B8F11F0010112D120460191F2
:106B9000FDF789FA019960B1084A094B0948FFF7E6
:106BA000D7FF2046FDF784FA074A0849054800F058
:106BB0000DFE044802B010BD90E6032094E60320C9
:106BC00018E703209CE70320A8DE0320D56A0D0008
:106BD0007047F8B5064615460C468F18BC4206D0DD
:106BE000336814F8011B9B6830469847F6E728463F
:106BF000F8BD007C0022FFF753B8007C0021FFF7AE
:106C000057B8007C0021FFF75BB8007C0021FFF73C
:106C10005FB8007C0021FFF763B810B5142104466B
:106C200000F0D9FD204610BD10B54FF47A7304462C
:106C300008460021C4E90113034B23602074114668
:106C4000FFF75EF8204610BD68910D000023007C20
:106C50001A461946FFF70CB87FB500221423CDE978
:106C60000122ADF804300B788DF808304B6803939F
:106C7000CB680493007C0B7A059301A9FFF748F8D1
:106C800007B05DF804FB1FB5003B8DF800104FF016
:106C90006401039118BF0123694601928DF8083001
:106CA000FFF7DAFF05B05DF804FB0123FFF7EBBF48
:106CB000007C0022FEF7E4BF007C0022FEF7E8BF64
:106CC0000121FFF7F9BF13B503688DF80710DC6BDE
:106CD00001224FF0FF330DF10701A04702B010BDB4
:106CE00010B40368DC6B4FF0FF33A4465DF8044B2F
:106CF000604713B5134602688DF80710D46B0DF189
:106D000007010122A04702B010BD704738B54369A2
:106D10001A68002A054610DAB3F88620B3F88430E2
:106D20009A420AD103681B699847044628B92B6820
:106D30002846DB6A9847204638BD0120FCE74369B6
:106D40001868C043C00F704770470000064B994257
:106D500010B500F10C0405D0084600F041FD0028F4
:106D600008BF0024204610BDB8900D0010B5AC211E
:106D7000044600F030FD204610BDFDF790B92DE926
:106D8000F0414FF0000886B01D46C0F8048004466C
:106D90000E4617464146102202A801F0EDFC6B1C7E
:106DA00009D04FF47A70B5FBF0F3CDE9023800FB5F
:106DB000135358430490606910230093006802AB9A
:106DC00041F2050240F6FF71FEF7AAFF002807DA3C
:106DD000FFF7F2F803686360002006B0BDE8F081B9
:106DE0006069002300683A463146FEF7B9FF031E8A
:106DF000EEDB1846F1E7000038B584690A4B036002
:106E000005467CB16368013B63605BB9236820463B
:106E10009B689847A368013BA3601BB92368204681
:106E2000DB689847284638BDC4910D0010B504466C
:106E3000FFF7E2FF20461C2100F0CDFC204610BDEC
:106E400070B54D69054B04468C3544F8043B064645
:106E50000FCD0FC42B682370304670BDF4900D0029
:106E600010B54369B3F88620B3F884309A420446DB
:106E700005D06369B3F884201344187910BD036802
:106E80001B6998470028F4D14FF0FF30F6E710B5A2
:106E90004369B3F88620B3F884309A42044608D098
:106EA0006369B3F88420511CA3F884101344187943
:106EB00010BD03681B6998470028F1D14FF0FF30DF
:106EC000F6E7F8B543691746B3F88620B3F884307F
:106ED0009A4205460E4616D06969B1F88430B1F879
:106EE0008640E41ABC4228BF3C460433224619447B
:106EF000304601F033FC6A69B2F884302344A2F8CA
:106F000084302046F8BD03681B6998470028E3D108
:106F10004FF0FF34F5E700002DE9F0439846036891
:106F200093B00D460024DB6A06461746984728466C
:106F30006B46224621460094FEF7BAFD054600281E
:106F400063D1009B002B4BD05B69002B48D006A877
:106F5000FFF7E0FC009B5C696378022B04D1211DE4
:106F600006A8FFF71AFD26E00A2B24D11122294694
:106F700001A801F001FCA368002B38D004F108033C
:106F80000DF1040C183418685968624603C20833BE
:106F9000A3429446F7D1062301A90CA88DF814301A
:106FA000FFF7C6FC0DF1340CBCE80F0007AC0FC4B2
:106FB000DCF80030237006A8FFF7CCFC80B1336802
:106FC00007ADD3F82090124B0C930FCD0DAC0FC42E
:106FD0002B6823703A4643460CA93046C8470546FD
:106FE0000098FEF75DFD284613B0BDE8F083E36826
:106FF000002BC3D14FF6FF70D4F81090FEF7E8FDD8
:107000008145BBD104F11401AAE72546E8E700BF9A
:10701000F4900D0042690023A2F884304269A2F87E
:10702000863070472DE9F0411F4603680C46DB6A45
:107030008AB0054616469847237DD5F81480042B60
:107040000CBF02200A2006220121FEF791FEC8F89B
:1070500000006B691B68002B08DA2B682846DB6A86
:107060000024984720460AB0BDE8F0812846FFF783
:10707000D1FFB7B1002303A9F8B20393ADF81030E4
:10708000FEF756FD0028E8D16869062300930068E2
:1070900003AB41F20B0240F6FF71FEF741FE002800
:1070A000DBD11C22002103A801F066FB237D042B09
:1070B0001DD14FF407733046ADF80C30FEF790FD4C
:1070C000ADF80E006068FEF783FD04906B691C222A
:1070D000186803A9FEF734FE0028BED104340FCC93
:1070E0006D698C350FC523682B700124BAE740F613
:1070F0001C233046ADF80C30FEF772FD05AEADF83E
:107100000E00231D04F1140718685968324603C2A3
:107110000833BB421646F7D1D8E7000030B54269C4
:10712000B2F886308BB004462BB1B2F884209A4274
:1071300001D1FFF76FFF61690868002818DBB1F81B
:1071400086507F2D14D804310823C5F180022944CC
:10715000FEF7FEFD002813DD6369B3F886200AB947
:10716000A3F884206369B3F886201044A3F886004E
:107170006369B3F88600B3F88430C01A0BB030BD31
:10718000FEF71AFF03680B2BF2D0FEF715FF03681A
:107190000B2BEDD020230025CDE90235FEF70CFFA7
:1071A00003680193084B0949009302AA2B46322039
:1071B000FEF736FE63691868FEF7BAFD63694FF0A3
:1071C000FF321A60D4E700BF8F910D0088910D0047
:1071D00010B5436904461868002801DBFEF7A8FDD6
:1071E00063694FF0FF321A606069112200218C3010
:1071F00001F0C2FA2046BDE81040FFF70BBF10B502
:10720000002304460160C0F884308830FFF782FB19
:10721000204610BD73B500234FF47A72C0E90132E5
:107220000E4A0361026043610446AC200191FCF701
:1072300032FF051E05F10C0608D00123C5E9013314
:10724000074B01992B603046FFF7D9FF2046C4E970
:107250000565FFF7DFFE02B070BD00BFC4910D00F1
:10726000A8910D0010B54FF0FF310446FFF7D2FF93
:10727000204610BD10B504460068002801DBFEF76B
:1072800057FD204610BD0C30FFF7F4BF70470120BA
:10729000704710B52421044600F09DFA204610BD29
:1072A000002240681146FEF72FBE002240681146BA
:1072B000FEF74ABE40680022FEF73EBE406800224C
:1072C00081F00101FEF718BE002340681A461946F6
:1072D000FEF70ABE002240681146FEF7E5BD406891
:1072E00000220221FEF7E8BD002340681A46FEF79F
:1072F000D3BD000083897BB14369002B0CDB07EE13
:10730000903A9FED077AF8EEE77A87EE870ADFED8D
:10731000057A20EE270A7047BFEE000A704700BFCB
:1073200000FF7F470000C842838963B10369B3F15E
:10733000004F08D007EE903A9FED047AF8EEE77A16
:1073400087EE870A70479FED020A70470000C84227
:107350000000000083897BB1036A002B0CDB07EE81
:10736000903A9FED077AF8EEE77A87EE870ADFED2D
:10737000057A20EE270A7047BFEE000A704700BF6B
:1073800000FF7F470000C842838963B18369B3F17E
:10739000004F08D007EE903A9FED047AF8EEE77AB6
:1073A00087EE870A70479FED020A70470000C842C7
:1073B0000000000090F90400704770B50C460646C6
:1073C00000F10C050FCC0FC594E8030085E803001D
:1073D0003369B3F1004F0EBF0223642293FBF2F333
:1073E0007360B369B3F1004F0CBF002364224FF008
:1073F000010018BF93FBF2F3B36070BD2DE9F041BB
:10740000164B036000250F464FF002081826C0E90E
:10741000018586B03246294604460C3001F0ACF9AD
:1074200078682A462946FEF74FFD80B13246294644
:10743000684601F0A1F92A4669462846ADF8006081
:10744000FEF7E6FC38B969462046FFF7B6FF20464E
:1074500006B0BDE8F081C4F80480F8E744920D005E
:10746000024B04225A60024A1A607047B0E70320B8
:1074700010920D00002340681A46FEF70DBD4068CB
:1074800000220221FEF718BD002240681146FEF7D7
:107490000BBD002240681146FEF716BD0023406870
:1074A0001A461946FEF718BD002340681A461946C9
:1074B000FEF71ABD4068002281F00101FEF71CBDF5
:1074C00040680022FEF738BD002240681146FEF7F2
:1074D0003BBD002240681146FEF716BD2DE9F04382
:1074E000002495B016460D460746FFF713FA2146CD
:1074F00018220EA8009401F03FF94023CDE90C3486
:1075000021466B460CAA3046FEF7D2FA0446002804
:1075100046D1024601216868FEF7D6FC022180466A
:1075200022466868FEF7D0FC009E81462146002E68
:1075300036D0002934D17368022B03D00A2B0BD02C
:10754000F669F4E7B8F1000F04D0716938460431E8
:10755000FFF723FA4146F3E7B9F1000F01D149469D
:10756000EEE77469102201A801F006F906238DF8F0
:10757000143001AD04F108031834186859682A461C
:1075800003C20833A3421546F7D101A906A807ADE7
:10759000FFF7CEF90FCD3C1D0FC42B682370DEE73B
:1075A0000098FEF77DFA384615B0BDE8F08300007C
:1075B000024B034A1A6000225A607047B8E7032062
:1075C00068920D00232813B502D9002002B010BD27
:1075D000A0F10B03022B1AD8174C2178BFF35B8F55
:1075E00011F001010BD120460191FCF75CFD0199DE
:1075F00028B11248FEF72EFD2046FCF759FD0F4B2F
:107600001878FEF7C5FB0028DFD10120DEE701284E
:1076100009D800F0B3F80021007CFEF769FB80F088
:107620000100C0B2D2E709380128EED8FFF7A6FA68
:10763000007CFEF70DFBF2E7C0E70320C4E7032060
:10764000232838B504460D460AD8FF2908D0FFF78D
:10765000B9FF28B129462046BDE83840FEF738BAC0
:1076600038BD38B504460D46FEF73AFAFF2810D06B
:10767000062804D84D2323FA00F0C30709D4204676
:10768000FFF7A0FF28B129462046BDE83840FEF7A5
:107690002FBA38BD10B50446FEF722FA031FDBB23D
:1076A000012B08D92046FFF78DFF20B12046BDE809
:1076B0001040FEF725BA002010BD0D2810B5044675
:1076C0009CBF0E34A4B22046FFF77CFF50B10321CB
:1076D0002046FEF7F5F9032804D12046BDE8104006
:1076E000FEF716BA002010BD70B504460D461646CA
:1076F000FFF768FF98B102212046FEF7E1F9022862
:107700000DD12046FEF7ECF9012801D0042806D15E
:10771000324629462046BDE87040FEF701BA70BDEA
:1077200010B5084C2378BFF35B8FDB0708D42046E5
:10773000FCF7B9FC20B1FEF71BFA2046FCF7B8FCB9
:10774000014810BDD0E70320D4E7032038B500235B
:107750002025438014230446038085600561064983
:10776000284600F03AF804496060284600F035F8F1
:10777000E060204638BD00BF94920D0030B50F4D3B
:107780002978BFF35B8F11F0010487B013D128462D
:10779000FCF789FC78B101A8FFF7D8FF01AA2146C0
:1077A0000748FFF741FA2846FCF782FC054A0649DC
:1077B000034800F00BF8024807B030BDD8E70320BB
:1077C000DCE70320A8DE0320D16B0D000B46014649
:1077D000184600F0B5BFFCF762BCFCF75EBC0000C9
:1077E000014900F0F9B800BFB0920D007FB5002448
:1077F0001023CDE90234036800949E698DF804409B
:1078000015466B461268B0479DF8043003F0060336
:10781000062B03BF009B2B600120204604B070BDE7
:107820000098904214BF01200620704710B5034B0A
:107830000360044600F0CDF8204610BDF0920D0024
:1078400010B50446FFF7F2FF20460821FFF7C3FFFB
:10785000204610BD2DE9F0411F46DDE90834DDF872
:10786000188098450646154607D1079900F0B4F8E8
:1078700018B165710020BDE8F0813946304600F04E
:10788000ABF80028F6D00123C4F800802571A3715D
:10789000F0E738B515461C4600F09EF820B10823E5
:1078A000E36006232560237138BD73B505460C4699
:1078B00001921E4600F090F850B9032E08D82368B4
:1078C000019A5B692946204602B0BDE8704018471E
:1078D00002B070BD10B5034B03600446FFF7A6FF6E
:1078E000204610BD50930D0010B50446FFF7F2FF7F
:1078F00020460C21FFF76FFF204610BDF7B5089F0B
:10790000974205460E4614460AD0A86802680897B2
:10791000156A31462246AC4603B0BDE8F0406047E8
:107920001946019300F058F8019B0028EDD006207D
:1079300003B0F0BD2DE9F14F0D461946DDE90A4BC4
:10794000DDE90CA681461746984600F045F890B14F
:10795000002D3460377109DB61198A450CBF06219F
:107960000121B171002001B0BDE8F08F0235F9D1DD
:107970000123B371F6E7544506D15946484600F055
:107980002BF808B17771EDE7D9F808000368CDE965
:107990000CA6CDE90A4BDC693A4643462946A44683
:1079A00001B0BDE8F04F60472DE9F04107460C46B5
:1079B00015461E46FFF76DFF48B9B86803689F6912
:1079C0002A4633462146BC46BDE8F0416047BDE843
:1079D000F081704700207047814208B50ED04068A2
:1079E00003782A2B0CD049680B782A2B08BF013169
:1079F00000F0EEFEB0FA80F0400908BD0120FCE77F
:107A00000020FAE781F0004102E000BF83F000436C
:107A100030B54FEA41044FEA430594EA050F08BF29
:107A200090EA020F1FBF54EA000C55EA020C7FEAED
:107A3000645C7FEA655C00F0E2804FEA5454D4EB6A
:107A40005555B8BF6D420CDD2C4480EA020281EA34
:107A5000030382EA000083EA010180EA020281EA6C
:107A60000303362D88BF30BD11F0004F4FEA0131BE
:107A70004FF4801C4CEA113102D0404261EB4101CD
:107A800013F0004F4FEA03334CEA133302D0524253
:107A900063EB430394EA050F00F0A780A4F101040F
:107AA000D5F1200E0DDB02FA0EFC22FA05F2801849
:107AB00041F1000103FA0EF2801843FA05F359412F
:107AC0000EE0A5F120050EF1200E012A03FA0EFCAE
:107AD00028BF4CF0020C43FA05F3C01851EBE371D8
:107AE00001F0004507D54FF0000EDCF1000C7EEBF5
:107AF00000006EEB0101B1F5801F1BD3B1F5001F33
:107B00000CD349085FEA30004FEA3C0C04F1010451
:107B10004FEA445212F5800F80F09A80BCF1004F7A
:107B200008BF5FEA500C50F1000041EB045141EAFC
:107B3000050130BD5FEA4C0C404141EB0101013CC5
:107B400028BFB1F5801FE9D291F0000F04BF0146B4
:107B50000020B1FA81F308BF2033A3F10B03B3F186
:107B600020020CDA0C3208DD02F1140CC2F10C0216
:107B700001FA0CF021FA02F10CE002F11402D8BF74
:107B8000C2F1200C01FA02F120FA0CFCDCBF41EA40
:107B90000C019040E41AA2BF01EB0451294330BD0F
:107BA0006FEA04041F3C1CDA0C340EDC04F11404EC
:107BB000C4F1200220FA04F001FA02F340EA0300C3
:107BC00021FA04F345EA030130BDC4F10C04C4F109
:107BD000200220FA02F001FA04F340EA03002946E9
:107BE00030BD21FA04F0294630BD94F0000F83F433
:107BF000801306BF81F480110134013D4EE77FEA16
:107C0000645C18BF7FEA655C29D094EA050F08BF61
:107C100090EA020F05D054EA000C04BF1946104642
:107C200030BD91EA030F1EBF0021002030BD5FEA86
:107C3000545C05D14000494128BF41F0004130BDAE
:107C400014F580043CBF01F5801130BD01F0004502
:107C500045F0FE4141F470014FF0000030BD7FEA75
:107C6000645C1ABF194610467FEA655C1CBF0B4670
:107C7000024650EA013406BF52EA033591EA030F87
:107C800041F4002130BD00BF90F0000F04BF00217F
:107C9000704730B54FF4806404F132044FF00005B2
:107CA0004FF0000150E700BF90F0000F04BF00212B
:107CB000704730B54FF4806404F1320410F0004591
:107CC00048BF40424FF000013EE700BF42004FEA8C
:107CD000E2014FEA31014FEA02701FBF12F07F4309
:107CE00093F07F4F81F06051704732F07F4208BFC0
:107CF000704793F07F4F04BF41F40021704730B5C7
:107D00004FF4607401F0004521F000411CE700BF12
:107D100050EA010208BF704730B54FF000050AE095
:107D200050EA010208BF704730B511F0004502D596
:107D3000404261EB41014FF4806404F132045FEA98
:107D4000915C3FF4D8AE4FF003025FEADC0C18BF41
:107D500003325FEADC0C18BF033202EBDC02C2F133
:107D6000200300FA03FC20FA02F001FA03FE40EAC5
:107D70000E0021FA02F11444BDE600BF70B54FF0C9
:107D8000FF0C4CF4E06C1CEA11541DBF1CEA1355A7
:107D900094EA0C0F95EA0C0F00F0DEF82C4481EA0F
:107DA000030621EA4C5123EA4C5350EA013518BF2F
:107DB00052EA033541F4801143F4801338D0A0FB1C
:107DC00002CE4FF00005E1FB02E506F00042E0FBC9
:107DD00003E54FF00006E1FB03569CF0000F18BFCF
:107DE0004EF0010EA4F1FF04B6F5007F64F5407477
:107DF00004D25FEA4E0E6D4146EB060642EAC6210A
:107E000041EA55514FEAC52040EA5E504FEACE2E76
:107E1000B4F1FD0C88BFBCF5E06F1ED8BEF1004F79
:107E200008BF5FEA500E50F1000041EB045170BDF5
:107E300006F0004646EA010140EA020081EA030139
:107E4000B4EB5C04C2BFD4EB0C0541EA045170BD35
:107E500041F480114FF0000E013C00F3AB8014F1AF
:107E6000360FDEBF002001F0004170BDC4F10004F8
:107E7000203C35DA0C341BDC04F11404C4F1200579
:107E800000FA05F320FA04F001FA05F240EA0200D4
:107E900001F0004221F0004110EBD37021FA04F60A
:107EA00042EB06015EEA430E08BF20EAD37070BDC4
:107EB000C4F10C04C4F1200500FA04F320FA05F023
:107EC00001FA04F240EA020001F0004110EBD37025
:107ED00041F100015EEA430E08BF20EAD37070BD95
:107EE000C4F1200500FA05F24EEA020E20FA04F36E
:107EF00001FA05F243EA020321FA04F001F000411D
:107F000021FA04F220EA020000EBD3705EEA430E8D
:107F100008BF20EAD37070BD94F0000F0FD101F0BC
:107F20000046400041EB010111F4801F08BF013CF5
:107F3000F7D041EA060195F0000F18BF704703F033
:107F40000046520043EB030313F4801F08BF013DBA
:107F5000F7D043EA0603704794EA0C0F0CEA135576
:107F600018BF95EA0C0F0CD050EA410618BF52EA30
:107F70004306D1D181EA030101F000414FF0000036
:107F800070BD50EA410606BF1046194652EA430644
:107F900019D094EA0C0F02D150EA013613D195EAB8
:107FA0000C0F05D152EA03361CBF104619460AD100
:107FB00081EA030101F0004141F0FE4141F470010A
:107FC0004FF0000070BD41F0FE4141F4780170BDFA
:107FD00070B54FF0FF0C4CF4E06C1CEA11541DBF5F
:107FE0001CEA135594EA0C0F95EA0C0F00F0A7F861
:107FF000A4EB050481EA030E52EA03354FEA01318E
:1080000000F088804FEA03334FF0805545EA1313A0
:1080100043EA12634FEA022245EA111545EA106568
:108020004FEA00260EF000419D4208BF964244F1FF
:10803000FD0404F5407402D25B084FEA3202B61A1E
:1080400065EB03055B084FEA32024FF480104FF4F2
:10805000002CB6EB020E75EB030E22BFB61A754666
:1080600040EA0C005B084FEA3202B6EB020E75EBF9
:10807000030E22BFB61A754640EA5C005B084FEA61
:108080003202B6EB020E75EB030E22BFB61A75462E
:1080900040EA9C005B084FEA3202B6EB020E75EB39
:1080A000030E22BFB61A754640EADC0055EA060EFA
:1080B00018D04FEA051545EA16754FEA06164FEA3D
:1080C000C30343EA52734FEAC2025FEA1C1CC0D1E9
:1080D00011F4801F0BD141EA00014FF000004FF076
:1080E000004CB6E711F4801F04BF01430020B4F137
:1080F000FD0C88BFBCF5E06F3FF6AFAEB5EB030CEF
:1081000004BFB6EB020C5FEA500C50F1000041EBEB
:10811000045170BD0EF0004E4EEA113114EB5C04B8
:10812000C2BFD4EB0C0541EA045170BD41F480118B
:108130004FF0000E013C90E645EA060E8DE60CEA93
:10814000135594EA0C0F08BF95EA0C0F3FF43BAFB0
:1081500094EA0C0F0AD150EA01347FF434AF95EA67
:108160000C0F7FF425AF104619462CE795EA0C0F4B
:1081700006D152EA03353FF4FDAE1046194622E718
:1081800050EA410618BF52EA43067FF4C5AE50EAF2
:1081900041047FF40DAF52EA43057FF4EBAE12E7E2
:1081A0004FF0FF3C06E000BF4FF0010C02E000BFC3
:1081B0004FF0010C4DF804CD4FEA410C7FEA6C5CA6
:1081C0004FEA430C18BF7FEA6C5C1BD001B050EA49
:1081D000410C0CBF52EA430C91EA030F02BF90EA34
:1081E000020F0020704710F1000F91EA030F58BFF3
:1081F000994208BF90422CBFD8176FEAE37040F055
:10820000010070474FEA410C7FEA6C5C02D150EAF2
:10821000013C07D14FEA430C7FEA6C5CD6D152EAAD
:10822000033CD3D05DF8040B704700BF8446104672
:1082300062468C461946634600E000BF01B5FFF771
:10824000B7FF002848BF10F1000F01BD4DF808ED41
:10825000FFF7F4FF0CBF012000205DF808FB00BF12
:108260004DF808EDFFF7EAFF34BF012000205DF86C
:1082700008FB00BF4DF808EDFFF7E0FF94BF0120B9
:1082800000205DF808FB00BF4DF808EDFFF7CEFFBA
:1082900094BF012000205DF808FB00BF4DF808EDF9
:1082A000FFF7C4FF34BF012000205DF808FB00BFCA
:1082B0004FEA410C7FEA6C5C02D150EA013C0AD1E2
:1082C0004FEA430C7FEA6C5C02D152EA033C02D1D4
:1082D0004FF0000070474FF0010070474FEA410235
:1082E00012F5001215D211D56FF47873B3EB625208
:1082F00012D94FEAC12343F0004343EA505311F02F
:10830000004F23FA02F018BF404270474FF00000C0
:10831000704750EA013005D111F0004008BF6FF0FE
:10832000004070474FF00000704700BF4A0011D274
:1083300012F5001211D20DD56FF47873B3EB6252BF
:108340000ED44FEAC12343F0004343EA505323FACB
:1083500002F070474FF00000704750EA013002D140
:108360004FF0FF3070474FF0000070474FEA410276
:10837000B2F1E04324BFB3F5001CDCF1FE5C0DD983
:1083800001F0004C4FEAC0024CEA5070B2F1004FCD
:1083900040EB830008BF20F00100704711F0804FD0
:1083A00021D113F13872BCBF01F00040704741F495
:1083B00080114FEA5252C2F11802C2F1200C10FA99
:1083C0000CF320FA02F018BF40F001004FEAC1237D
:1083D0004FEAD32303FA0CFC40EA0C0023FA02F321
:1083E0004FEA4303CCE77FEA625307D150EA0133F7
:1083F0001EBF4FF0FE4040F44000704701F00040C7
:1084000040F0FE4040F40000704700BF53B94AB945
:10841000002908BF00281CBF4FF0FF314FF0FF308C
:1084200000F08CB9ADF1080C6DE904CE00F024F831
:10843000DDF804E0DDE9022304B07047D0B50C4B51
:10844000002206460F46FFF799FCFFF76FFF044630
:10845000FFF71AFC074B0022FFF790FC02460B4681
:1084600030463946FFF7D2FAFFF760FF2146D0BD0C
:108470000000F03D0000F0412DE9F047089D044662
:108480008C46002B40F083808A42174647D9B2FAC7
:1084900082F242B1C2F1200024FA00F091409740EC
:1084A00040EA010C94404FEA1748230CBCFBF8F655
:1084B0001FFA87FE08FB16C143EA014306FB0EF1D3
:1084C000994209D9FB1806F1FF3080F019819942D1
:1084D00040F21681023E3B445B1AA4B2B3FBF8F0B3
:1084E00008FB103344EA034400FB0EFEA64509D9FD
:1084F0003C1900F1FF3380F00581A64540F202816E
:1085000002383C4440EA0640A4EB0E0400261DB1AC
:10851000D4400023C5E900433146BDE8F08702B9E5
:10852000FFDEB2FA82F2002A50D1CB1B4FEA174E7F
:108530001FFA87F80126B3FBFEFC210C0EFB1C334F
:1085400041EA034108FB0CF38B4207D979180CF17F
:10855000FF3002D28B4200F2E9808446C91AA3B2EE
:10856000B1FBFEF00EFB101143EA014408FB00F8DA
:10857000A04507D93C1900F1FF3302D2A04500F213
:10858000D9801846A4EB080440EA0C40BFE78B42B0
:1085900009D9002D00F0B1800026C5E90001304660
:1085A0003146BDE8F087B3FA83F6002E4AD18B42FC
:1085B00002D3824200F2B880841A61EB03010120E9
:1085C0008C46002DA8D0C5E9004CA5E7C2F12003D8
:1085D00020FA03F6974001FA02F04FEA174ED9400D
:1085E0003043030CB1FBFEF61FFA87F80EFB1611A1
:1085F00043EA014306FB08F1994204FA02F409D95F
:10860000FB1806F1FF3C80F08D80994240F28A8091
:10861000023E3B445B1A81B2B3FBFEF00EFB10330B
:1086200041EA034100FB08F38B4207D9791800F1B6
:10863000FF3C73D28B4271D902383944CB1A40EADD
:10864000064678E7C6F1200C03FA06F422FA0CF38A
:108650001C4320FA0CF701FA06F34FEA144E21FAF4
:108660000CF11F433B0CB1FBFEF91FFA84F80EFB23
:10867000191143EA014109FB08FA8A4502FA06F298
:1086800000FA06F308D9611809F1FF3048D28A458B
:1086900046D9A9F102092144A1EB0A01BFB2B1FBFD
:1086A000FEF00EFB101147EA014700FB08F8B84541
:1086B00007D9E71900F1FF312ED2B8452CD902387D
:1086C000274440EA0940A7EB0807A0FB02894F4571
:1086D000C64649461AD317D05DB1B3EB0E0267EB1D
:1086E000010707FA0CFCF2404CEA0202F740C5E928
:1086F000002700263146BDE8F0872E4628460BE7C6
:108700000646E9E61846FDE64345E5D2B8EB020E1B
:1087100069EB04010138DFE70846D2E760468DE7E0
:108720008146B9E7664675E730464AE7ACF1020C88
:10873000394413E702383C4424E700BF704700BFC8
:1087400010B5054C13462CB10A4601460220AFF382
:10875000008010BD2046FCE7000000000A44914262
:1087600000F1FF3300D1704710B511F8014B03F849
:10877000014F9142F9D110BD02440346934200D10A
:10878000704703F8011BF9E738B50D4B1D68AB6B5B
:1087900004467BB91820FDF7F7FB0A4A0A4BA86389
:1087A000C0E90023094B83600B238381012200234E
:1087B000C0E90423AB6B00221C615A6138BD00BFC5
:1087C00044DE03200E33CDAB34126DE6ECDE050043
:1087D00010F8012B11F8013B012A28BF9A42F7D06B
:1087E000D01A7047034611F8012B03F8012B002A19
:1087F000F9D17047034613F8012B002AFBD1181A50
:108800000138704710B50139034632B111F8014FF4
:1088100003F8014B013A002CF7D11A44002193428E
:1088200000D110BD03F8011BF9E7000021400D0045
:108830005D400D0085400D0089400D0000000000E6
:1088400044454D4F004F4646004D4F4445204C0097
:108850004D4F44452054004D4F44452055002020A5
:10886000006368616E67654D515454006368616EC2
:1088700067654E6574776F726B004C756D696E61DC
:108880007269617300436F6E656374616E646F201B
:10889000636F6E20736572766572204D515454007B
:1088A0003139322E36382E3138352E323700616E5E
:1088B000797468696E67006172676F6E436C696591
:1088C0006E74006368616E67654D6F6465002F00AC
:1088D0004C756D696E6172696100436F6E6563749A
:1088E000616E646F20636F6E2073657276657220AF
:1088F0004D51545420436F6E66696700436F6E6E2E
:108900006578696F6E204D51545420434F4E46494F
:108910004720657869746F736100436F6E6E657888
:10892000696F6E204D51545420657869746F73617E
:1089300000436F6E656374616E646F20636F6E20B9
:1089400073656E736F72657320494E413231392EF3
:108950002E2E21004D696469656E646F20564F4C60
:1089600054414A45207920434F525249454E54457F
:1089700020636F6E20494E41323139202E2E2E0059
:108980006E65774461746100525353493A20003256
:1089900030392E3138322E3231382E3137350031E0
:1089A00039322E3136382E312E360000044D5154D6
:1089B000540400064D5149736470034D4F444520E3
:1089C0004D007B00226964223A00226530306663E4
:1089D00065363864613566643563643039643832CD
:1089E00030373822002C00226E616D65223A002259
:1089F0004C756D696E61726961312200226D6F6420
:108A000065223A002264617461223A00226C656436
:108A1000223A0022766F6C74616765223A00226305
:108A2000757272656E74223A007D00227076223A69
:108A3000002262617474657279223A00B8240000E1
:108A40009411000058020000A40600005802000023
:108A50002602000058020000260200005802000012
:108A60002602000058020000260200005802000002
:108A700026020000580200002602000058020000F2
:108A800026020000580200002602000058020000E2
:108A9000A406000026020000A40600005802000000
:108AA000A4060000580200007206000058020000F0
:108AB000A406000058020000A406000026020000E0
:108AC000A406000058020000260200005802000020
:108AD0002602000058020000A40600002602000042
:108AE000A406000058020000260200005802000000
:108AF0002602000058020000260200005802000072
:108B00002602000058020000A40600002602000011
:108B1000A4060000580200002602000058020000CF
:108B20002602000058020000A406000026020000F1
:108B3000A406000058020000A4060000580200002D
:108B40007206000058020000EA240000C61100006E
:108B500026020000A40600005802000026020000C1
:108B60005802000026020000580200002602000001
:108B700058020000260200005802000026020000F1
:108B800058020000260200005802000026020000E1
:108B9000580200005802000026020000A40600004F
:108BA000580200007206000058020000A4060000EF
:108BB000580200007206000058020000A4060000DF
:108BC00058020000A406000026020000A4060000CF
:108BD0005802000026020000580200002602000091
:108BE0005802000026020000580200007206000031
:108BF0008A0200002602000026020000580200003F
:108C000026020000260200008A0200002602000060
:108C100026020000A406000058020000A40600007E
:108C200026020000A40600005802000026020000F0
:108C300058020000A406000026020000A40600005E
:108C400058020000A406000058020000720600004E
:108C500058020000EA2400009411000058020000AD
:108C6000A40600005802000026020000580200007E
:108C700026020000580200002602000058020000F0
:108C800026020000580200002602000058020000E0
:108C900026020000580200002602000058020000D0
:108CA0002602000058020000A40600002602000070
:108CB000A406000058020000A406000058020000AC
:108CC0007206000058020000A406000058020000CE
:108CD000A406000026020000A406000058020000BE
:108CE000720600008A020000260200002602000030
:108CF0005802000026020000A406000058020000EE
:108D0000260200005802000026020000580200005F
:108D1000260200005802000026020000580200004F
:108D20002602000058020000A406000058020000BD
:108D300072060000580200002602000058020000DF
:108D4000A406000026020000A4060000580200004D
:108D5000A40600005802000072060000580200003D
:108D6000802500009411000058020000A4060000B5
:108D700058020000260200005802000026020000EF
:108D800058020000260200005802000026020000DF
:108D900058020000260200005802000026020000CF
:108DA000580200002602000058020000580200008D
:108DB00026020000A406000058020000A4060000DD
:108DC000580200007206000058020000A4060000CD
:108DD00026020000A406000058020000A4060000BD
:108DE00058020000720600005802000058020000FD
:108DF00026020000260200008A020000260200006F
:108E0000260200005802000026020000A40600000E
:108E1000580200002602000058020000260200004E
:108E2000580200002602000058020000A4060000BC
:108E3000580200007206000058020000A40600005C
:108E400026020000A40600005802000026020000CE
:108E500058020000A406000058020000A40600000A
:108E600026020000A406000058020000EA240000C8
:108E70009411000058020000720600008A020000EF
:108E80002602000026020000580200002602000010
:108E900058020000580200002602000026020000CE
:108EA000580200005802000026020000580200008C
:108EB00026020000580200002602000058020000AE
:108EC0007206000058020000A406000058020000CC
:108ED000A406000026020000A406000058020000BC
:108EE000A4060000580200007206000058020000AC
:108EF000A4060000260200005802000058020000EC
:108F0000260200005802000072060000580200000D
:108F10002602000058020000A406000058020000CB
:108F2000260200005802000026020000580200003D
:108F300026020000580200007206000058020000DD
:108F4000A40600005802000026020000580200009B
:108F500072060000580200002602000058020000BD
:108F6000A406000058020000A4060000260200002B
:108F7000A4060000580200004E25000094110000D5
:108F800058020000A406000058020000260200005B
:108F900058020000260200005802000026020000CD
:108FA00058020000260200005802000026020000BD
:108FB00058020000580200002602000026020000AD
:108FC000580200002602000058020000A40600001B
:108FD00058020000A406000026020000A4060000BB
:108FE00058020000A40600005802000072060000AB
:108FF00058020000A406000058020000720600009B
:109000008A020000720600005802000026020000DA
:10901000580200002602000058020000580200001A
:10902000260200002602000058020000260200006E
:10903000580200005802000026020000260200002C
:109040008A0200002602000026020000A40600009A
:1090500058020000A406000058020000A406000008
:1090600026020000A406000058020000A40600002A
:1090700058020000A406000026020000A40600001A
:1090800058020000000000000000000037600D00E2
:109090002D600D0023600D0019600D000D600D00A6
:1090A00001600D00F55F0D00ED5F0D00E35F0D0049
:1090B000D95F0D00DD740D0000000000000000000D
:1090C0006E616E00696E66006F766600617070009A
:1090D00025592D256D2D25645425483A254D3A25D1
:1090E00053257A0061736374696D650000000000A8
:1090F00000000000B1680D00A1680D00A3680D001C
:109100000000000000000000C9690D00316A0D0078
:10911000076A0D008D640D00F9690D00CB690D0023
:10912000DB690D002B6A0D00EB690D00C5690D00B0
:109130000000000000000000D56A0D00416B0D002A
:10914000196B0D008D640D00E96A0D00056B0D00B3
:10915000F76A0D00136B0D00D76A0D00DB6A0D0076
:109160000000000000000000D16B0D001B6C0D0022
:10917000F36B0D00D36B0D00FB6B0D00036C0D004A
:109180000B6C0D00136C0D00776972696E670072CD
:10919000656376206572726F72203D202564000041
:1091A0000000000000000000496D0D006D6D0D0015
:1091B00087720D007B6D0D004D6D0D0000000000ED
:1091C00000000000F96D0D002D6E0D00C76C0D0044
:1091D000E16C0D001D710D008F6E0D00616E0D00B4
:1091E0000B6D0D0025700D00196F0D00C36E0D0085
:1091F000D1710D000D6D0D003F6D0D00F36C0D0074
:109200007F6D0D00416E0D000000000000000000A9
:10921000E9720D00DF720D00D5720D008D410D0059
:1092200097410D00C9720D00BD720D00B5720D00A1
:10923000AB720D00A1720D00DD740D000000000086
:10924000000000008D720D0093720D008F720D00F2
:10925000F5720D0029730D0055730D0089730D0013
:10926000000000000000000075740D007F740D0008
:1092700089740D0093740D009D740D00A9740D0088
:10928000B5740D00C1740D00C9740D00D3740D00C8
:10929000DD740D0000537431395F53705F6D616B85
:1092A000655F7368617265645F74616700000000E8
:1092B000F0920D0095920D0050930D00C4920D0098
:1092C00074930D004E31305F5F6378786162697628
:1092D0003131375F5F636C6173735F747970655FA1
:1092E000696E666F4500000000000000B8920D0036
:1092F0002D780D0041780D00D5790D00D5790D0040
:10930000AB780D00ED770D0093780D0055780D00CA
:1093100021780D0050930D0020930D00B8920D00A0
:109320004E31305F5F637878616269763132305FE9
:109330005F73695F636C6173735F747970655F6994
:109340006E666F45000000000000000014930D00E1
:10935000D5780D00E9780D00D5790D00D5790D008F
:10936000AB780D00ED770D00A9790D0035790D0072
:10937000FD780D00F0920D007C930D00537439744C
:109380007970655F696E666F000000005D470D00D3
:1093900009590D0041600D0069600D0065640D0004
:1093A00019670D0029670D0061670D0061740D00DC
:1093B000B1750D000000000000000000000000007A
:0893C000B8F0FF7F010000007E
:0493C80000000000A1
:1093CC00E4900D0048DE03200000000000000000C7
:1093DC000000000000000000000000000000000081
:1093EC000000000000000000000000000000000071
:1093FC000000000000000000000000000000000061
:10940C000000000000000000000000000000000050
:10941C000000000000000000000000000000000040
:08942C00000000000000000038
:10943400FFFFFFFF00000102030405060708090AF5
:109444000B0C0D0E0F101112131415161718191AF0
:089454001B1C1D1E1F20280037
:04945C0078563412F8
:04000003D0004020C9
:00000001FF
